:020000040800F2
:10E00000100F00208DE10008950001089300010821
:10E010000000000000000000000000000000000000
:10E02000000000000000000000000000990001084E
:10E030000000000000000000970001089B0001089C
:10E040009FE100089FE100089FE100089FE10008B0
:10E050009FE100089FE100089FE100089FE10008A0
:10E060009FE100089FE100089FE100089FE1000890
:10E070009FE100089FE100089FE100089FE1000880
:10E080009FE100089FE100089FE100089FE1000870
:10E090009FE100089FE100089FE100089FE1000860
:10E0A0009FE100089FE100089FE100089FE1000850
:10E0B000050D01089FE100089FE1000800F002F84B
:10E0C00000F054F812A030C8083824182D18AC42BB
:10E0D00001D100F04BF80FCCA246AB460CA730CFD5
:10E0E0002D1B083F3F197C427F1E54442D090426F6
:10E0F000F441641EAC4201D300F038F801263342EB
:10E1000000D0FB1A3343984754465D46DFE70000D2
:10E11000AC340000CC340000103A02D378C878C187
:10E12000FAD8520701D330C830C101D504680C6059
:10E1300070470000704700000023002400250026DF
:10E14000103A01D378C1FBD8520700D330C100D5B3
:10E150000B60704710B5782902D100F0F7F810BDB8
:10E16000002010BD1FB51FBD10B510BD00F0C7FACF
:10E170001146FFF7F7FF02F0CDFD00F0DFFA03B420
:10E18000FFF7F2FF03BC00F0E5FA00000748804704
:10E1900007480047FEE7FEE7FEE7FEE7FEE7FEE78B
:10E1A00004480549054A064B70470000A3000108D2
:10E1B000BDE0000810090020100F0020100B002007
:10E1C000100B0020FEB5044610460D46184373D0D0
:10E1D000A6468C460020A41A01469D4167D3664698
:10E1E000002701243D46B61A9D4102D313463A4604
:10E1F0002124654676462F04360C3E432D0CB61A74
:10E200009D4104D3150C1B042B43120410346546A6
:10E2100076462F06360A3E432D0AB61A9D4104D390
:10E22000150E1B022B4312020834654676462F0753
:10E2300036093E432D09B61A9D4104D3150F1B0123
:10E240002B431201241D65467646AF07B6083E43B0
:10E25000AD08B61A9D4104D3950F9B002B43920045
:10E26000A41C65467646EF0776083E436D08B61A4D
:10E270009D411AD392185B41641C16E00018764643
:10E2800065464941B71A9D410191009009D3604606
:10E29000B11A98418E468446009801990025401C89
:10E2A0006941DD0752082A435B08641EE6D57246C1
:10E2B000634603B0F0BDFFE72046284307D00020A7
:10E2C000C0430146C046C04622462B46F1E7002027
:10E2D0000146F7E70FB41CB5074B06AA7B44694615
:10E2E0000090059800F0F3F90020694600F002FA6A
:10E2F0001CBC08BC04B018471504000070B50446E7
:10E3000085690068C10601D5302600E02026C007D7
:10E3100007D070BD62683046A1689047206A401CF3
:10E3200020626D1EF6D570BD70B504468569007813
:10E33000C00707D170BD6268A16820209047206A9D
:10E34000401C20626D1EF6D570BD000070B50446FD
:10E350000D4621461068C046C0462188090502D5F1
:10E360000F4A7A4402E00E4A7A440E3223460021D4
:10E37000243305E006070009360F965D5E54491CFC
:10E380000028F7D120780023000705D5702D03D091
:10E39000002901D002231132204600F03AF970BD65
:10E3A000E6300000F3B50446002081B0206220462C
:10E3B000E1688847002872D0252802D06268A168E9
:10E3C000ABE0594F00267F442046E168884720286B
:10E3D000054608DB312D06D2781920380078002850
:10E3E00001D00643F0E7B00701D5042086430020A2
:10E3F000E0610746A0612A2D0AD0284603F01FF8E5
:10E40000002827D0B8000019303D0090856119E040
:10E410000298BA00121902C8916102902046E16880
:10E420008847012F054617D1E06900281FDA202010
:10E4300086431CE000980A218069484300994019EE
:10E44000303888612046E1688847054602F0F7FFCA
:10E450000028EFD1012F0AD02E2D08D12046E168E7
:10E4600088470546202006437F1C022FC3DBA06996
:10E47000002803DA4042A06101200643F00701D0E2
:10E48000102086436C2D0BD0682D09D04C2D3CD02C
:10E490006A2D38D0742D38D07A2D36D016E040E071
:10E4A000E1682F4620468847B842054609D16C2FBF
:10E4B00029D001208002E1680643204688470546AE
:10E4C00004E06C2F1DD0FF2001300643002D28D022
:10E4D00028464138192803D80120C00206432035B8
:10E4E000204626602946029A1646FFF733FE00288A
:10E4F00010D001280BD0F61DF008C00008300290A3
:10E5000055E74020E1E78020D5E70020D3E7361D1E
:10E5100002964CE762682846A1689047206A401C32
:10E5200044E7206AFEBD0000AA300000034610B593
:10E530000B439B070FD1042A0DD308C810C9121F23
:10E54000A342F8D018BA21BA884201D9012010BDDF
:10E550000020C04310BD002A03D0D30703D0521CB3
:10E5600007E0002010BD03780C78401C491C1B1BE1
:10E5700007D103780C78401C491C1B1B01D1921E4B
:10E58000F1D1184610BD000030B5441C03E00178FD
:10E59000401C00290DD08107F9D10B4BDD0104C8C7
:10E5A000D11A91432940FAD0001B0A0603D0C01E9D
:10E5B00030BD001B30BD0A0401D0801E30BD0902F1
:10E5C000FCD0401E30BD00000101010101E004C08B
:10E5D000091F0429FBD28B0701D50280801CC907C3
:10E5E00000D00270704700290BD0C30702D0027020
:10E5F000401C491E022904D3830702D50280801CD7
:10E60000891EE3E70022EEE70022DFE7704770474C
:10E610007047FFB504460D4681B024300090216854
:10E62000880604D51022E0699143216000E00120B2
:10E63000A84201DD471B00E000270498A1697A1970
:10E640001018081AA0612078C00602D42046FFF7EF
:10E6500055FE002608E003986268A168805D904737
:10E66000206A401C761C206204988642F3DB2078E6
:10E67000C0060AD52046FFF741FE06E06268A168A1
:10E6800030209047206A401C206238467F1E0028B8
:10E69000F4DC07E000986268A168405D9047206A5A
:10E6A000401C206228466D1E0028F3DC2046FFF740
:10E6B0003BFE2078000602D5022005B0F0BD012007
:10E6C000FBE7000001694A1C02610878704700B549
:10E6D0008FB002910021059105490193794403917E
:10E6E000114604906846FFF75DFE0FB000BD0000C4
:10E6F000E5FFFFFF0A681070521C0A6070477546FC
:10E7000000F024F8AE46050069465346C008C00034
:10E71000854618B020B5FFF743FD60BCB64600261D
:10E720000027C0C5C0C5C0C5C0C5C0C5C0C5C0C51F
:10E73000C0C5403D490849008D46704710B50446A4
:10E74000C046C0462046FFF71AFD10BD004870477E
:10E750001000002001491820ABBEFEE72600020091
:10E760007047EFF3108072B6FEE7000070B5002826
:10E770002CD0014624314A78022A29D10468226823
:10E780000E239A432260426C15682F4B1D40156082
:10E790002568012295432560046C1C2525401446FC
:10E7A000AC402A4D2E6826432E60846CC56C656093
:10E7B000046D002C05D025681D402560436D806DDB
:10E7C00058604A70002000220A7070BD012070BDA0
:10E7D0000422C263012000220A7070BD70B5014698
:10E7E00024314A78022A2BD103681A680E24A243E6
:10E7F0001A601C68012294431C60446C2568124B0B
:10E800001D402560046C1C2525401446AC400F4D6E
:10E810002E6826432E60846CC56C6560046D002CE8
:10E8200005D025681D402560436D846D5C60002423
:10E830000C704A70816B002900D08847204670BD5B
:10E840000421C163012070BDFFFEFFFF04000240F0
:10E8500010B50024E043064988608C60C860CC6035
:10E8600048604C6008600C6000F0C0F9204610BDA4
:10E8700024100240B0B5044600F072F90546601C51
:10E8800002D0D9480078241800F06AF9401BA04251
:10E89000FAD3B0BDF0B58AB00890002975D0A3486E
:10E8A000089A824201D0052000E0032000900898D9
:10E8B000203001900026344637463246029126E049
:10E8C000069EA640089B1868304318601C200999D2
:10E8D00008400694059C8440D0088000019D29587A
:10E8E000A143069C29509868B043986058680799DE
:10E8F00088435860D868B043099ED8600299521C7A
:10E900000846D040361DA41C083700283DD00123FE
:10E910001846904005460D40F1D00790032110465F
:10E9200006918843824908180390006E04900520E0
:10E9300000070899814208D07F48814206D07F486D
:10E940008142009B02D1022300E000230996182097
:10E9500038400F2105918140049E0E4083409E4225
:10E96000AED1039E6036734B1868A8431860586890
:10E97000A84358606E4B5868A84358601868A8436D
:10E9800018603068884330609AE70AB0F0BDC0462E
:10E99000F0B58CB00A900B910968002900D1C2E053
:10E9A00062480A9A824201D0052000E003200090CC
:10E9B0000A9820300190002308931D46099310E027
:10E9C0000A4332605B1C0B9801680846D840099ADC
:10E9D00008320992089A121D0892AD1C002800D135
:10E9E000A1E0012006469E403140EBD00793039002
:10E9F00004910A9A03242046A840C1432B460B9851
:10EA0000456828462040471E012F06910295059330
:10EA10000FD894680C400B99CF689F4027439760AC
:10EA2000EC06E40F079B9C405768B74327435760A9
:10EA300005E00328079B02D12046029D1EE00A9FA5
:10EA4000FC6806990C400B9A966805998E402643FF
:10EA5000FE600228029D11D11C20089908400F2257
:10EA60008240DC08A40001990E5996430B9F3A6935
:10EA7000824032430A517D6803202840059B98401C
:10EA80000A9A146806990C4004431460A8031D46B2
:10EA9000079B800F0499039F94D003201A4682435A
:10EAA00023488018026E052424070A9EA6420AD035
:10EAB000214C0A9EA64207D0204C0A9EA642009FE7
:10EAC00002D1022700E000271824099E34400F26B7
:10EAD000A640B2436030A74017430760144802685D
:10EAE0000B984068C40201D50A4300E08A43114EE6
:10EAF0000F4C22606268840201D50A4300E08A4319
:10EB00000B4C62607268840305D50A4372603268F8
:10EB1000C00306D554E78A4372603268C00300D54B
:10EB20004EE78A434DE70CB0F0BDC046000C0050E4
:10EB300000180240801802400004005000080050F5
:10EB400042690B4693430A401104C918816170471A
:10EB5000002A02D018228150704728228150704725
:10EB6000054800687047C0461F48007802490A6897
:10EB7000101808607047C0460809002010B501242D
:10EB8000200208490A6802430A60032000F00CF8DA
:10EB9000002801D0204610BD00F02AF800242046AD
:10EBA00010BDC0460020024070B50F4E31780124E0
:10EBB000002916D005467D20C00002F045FB014625
:10EBC0005148006802F040FB00F02CFD032D08D8EE
:10EBD000002806D10024E0432946224600F03AF8F6
:10EBE0007560204670BDC0460000002070470000E0
:10EBF00082B00948416801221143416041681140D7
:10EC000001910199110702680A43026000680840F7
:10EC10000090009802B070473C100240002809D4D0
:10EC20001F2108400121814003480160BFF34F8F3D
:10EC3000BFF36F8F7047C04680E100E0002805D425
:10EC40001F21084001218140014801607047C046F2
:10EC500000E100E0002805D40322034693430A4A5A
:10EC60009A1803E00C220240064BD2188007C00E0F
:10EC70008901C9B28140FF2383401068984308434B
:10EC80001060704714ED00E000E400E0F0B581B0E2
:10EC90000146032460021B4D2A46143A136883433D
:10ECA0000B43136001277A020020914224D11649B8
:10ECB00009682A6852051FD5BE0206224A43134935
:10ECC0000090104602F0C0FA01460098791A022915
:10ECD00014D02A6832420FD001290FD02A6832425C
:10ECE0000AD000290AD02A68324205D0091D03291A
:10ECF00004D02A683242EAD101B0F0BD204601B00A
:10ED0000F0BDC046147000400800002040420F00D3
:10ED1000F0B587B00746807880077E4E01D400208A
:10ED200050E00597012319073246183A1068084049
:10ED3000049006D1106808431060106808400690DF
:10ED400006980192029100931F02734C2068384389
:10ED50002060FFF705FF0546206838420AD1FFF71B
:10ED6000FFFE401B0228F7D90320059F04990029C4
:10ED700023D027E0032003900102B0680840059FDC
:10ED800011D0396B88420BD0B06800990904B26881
:10ED90000A43B260B2688A43B26060490840B0601A
:10EDA000C00700D0A3E0B0685C490840396B01435C
:10EDB000B16000200499002904D1019B1968029ACE
:10EDC000914319603968CA070DD18A0713D4CA065E
:10EDD00019D48A0520D44A0527D48A062ED40122C4
:10EDE0004B0435D443E0326803239A437B681343D2
:10EDF00033608A07EBD532680C239A43BB68134310
:10EE00003360CA06E5D50322920233689343FA6859
:10EE10001A4332608A05DED5032292043368934395
:10EE2000BA691A4332604A05D7D5032212053368FE
:10EE30009343FA691A4332608A06D0D5032212033B
:10EE4000336893433A691A43326001224B040ED56A
:10EE50003368334C23403D6A2B433360631C9D422F
:10EE600005D113043446483C25681D4325600B0337
:10EE700005D533684024A3437C6A1C433460930562
:10EE80008C0212D534689C43BD6A2C4334609D4289
:10EE90000BD1140605943546483D039038462F683B
:10EEA000059C27432F600746039819420CD0130690
:10EEB00034689C43FD6A2C4334609D4204D134463F
:10EEC000483C25681D43256009050ED591030323A1
:10EED0009B0334689C437B691C4334608B4204D1A0
:10EEE0001104483E32680A43326007B0F0BDFFF7B4
:10EEF00037FE0546844CB068800700D553E7FFF71E
:10EF00002FFE401BA042F6D903980499002900D196
:10EF100053E757E75410024000700040FFFCFFFF2A
:10EF2000FFFFFF3FF0B583B00D46014601200029E9
:10EF300061D00291019073480068072738408542EC
:10EF400015D970490868B843284308606E4CFFF72C
:10EF500007FE06466B4800683840A84207D0FFF716
:10EF6000FFFD801BA042F5D9032003B0F0BD029B3A
:10EF7000186881078F4C0CD5410703D539032268E7
:10EF80000A4322600F21090222688A4399681143CB
:10EF90002160C0071AD15B480068384085422CD2F6
:10EFA00058490868B84328430860574CFFF7D8FD14
:10EFB0000646544800683840A8421ED0FFF7D0FDEE
:10EFC000801BA042F5D9032003B0F0BD5968032986
:10EFD0006AD8880001A2125801989746EDEF000800
:10EFE0009DF0000889F0000895F000082246083AD4
:10EFF000126852055CD403B0F0BD029A1078400745
:10F000006C4C05D5380321688143D06808432060E3
:10F0100020688006400F1FD0226838210A406648C9
:10F02000082A20D022680A40102A5AD16168032297
:10F030000A40032A00D0614861684906490F491C0B
:10F0400002F002F961684904490E48436168490FBA
:10F05000491C02F0F9F806E02046083800688004F0
:10F06000410F5648C840216889093C220A40274977
:10F0700089581F220A40D0402D4908602448006862
:10F08000FFF792FD03B0F0BD2246083A12689201E4
:10F09000B1D50DE0A26D9207ADD509E02246083A40
:10F0A00012689203A7D503E0606D80070198A2D58E
:10F0B0002068B84308432060FFF752FD06462068E9
:10F0C0003821014002984068C000814200D162E7C7
:10F0D000FFF746FD801B0C498842F0D9032003B09E
:10F0E000F0BD20680840202802D10120C003BAE703
:10F0F00020680840182801D00020B4E77D200002D5
:10F10000B1E7C046002002408813000088140108BF
:10F11000040000200648006826490968890A1C2264
:10F120000A40044989581F220A40D0407047C0460F
:10F1300008000020C814010810B51E4C2068800685
:10F14000400F06D0226838210A401B48082A07D100
:10F1500010BD083C20688004410F1848C84010BD0D
:10F1600022680A40102A15D1616803220A40032A46
:10F1700000D0124861684906490F491C02F064F842
:10F1800061684904490E48436168490F491C02F00F
:10F190005BF810BD20680840202802D10120C00380
:10F1A00010BD20680840182801D0002010BD7D2027
:10F1B000000210BD0810024000127A000024F40082
:10F1C000F0B587B004460120002C00D102E2049083
:10F1D0002078C007F34E059445D12078800768D485
:10F1E00005980078000700D596E0059A107840074A
:10F1F00000D5A8E0D469002C00D1CFE1B068382157
:10F200000140102900D014E1012C00D1A8E0F068E1
:10F2100003210140059C226A914200D0A0E07021A8
:10F220000140626A914200D09AE07F2109020140C8
:10F23000A26A1202914200D092E01F2149040140CB
:10F24000E26A914200D08BE007214A060240236B1C
:10F250009A4200D084E049070840616B88420498D4
:10F2600000D0B7E19AE1B068382202401021514045
:10F27000F368032004469C430B1959425941082A5C
:10F2800058D0002956D13168059A53680124670483
:10F2900022049342039008D005252D04AB4200D0F0
:10F2A000F9E0A30419433160316811433160059CD2
:10F2B000FAE0B0683821014010204840F268032489
:10F2C000224002235340C01842424241012087029B
:10F2D000002948D0002A46D103943168059CE26891
:10F2E000002A00D1EFE00722D202914322690A43AB
:10F2F00032600002316801433160FFF731FC05469E
:10F300003068384200D0F0E0FFF72AFC401B0228AA
:10F31000F6D9039807B0F0BDB0683821014018292C
:10F320004BD1306E800700D45FE7059880690028D4
:10F3300016D05AE730688003059C00D44DE760681A
:10F3400000280DD049E7B0683821014020294BD171
:10F35000F06D800700D44DE79068002800D049E7A1
:10F36000049807B0F0BD32683A42059B03D0DA68D2
:10F37000002A00D12EE105467F20000272688243F8
:10F38000586900021043706000290DD10720C002A7
:10F390003168814318690843306030688004400F49
:10F3A0009949C1409948016099480068FFF7FCFB02
:10F3B0000028284600D00DE112E7306E05998969D2
:10F3C000002900D19AE0012108433066FFF7C8FB0D
:10F3D0000546306E800700D507E7FFF7C1FB411BEC
:10F3E00003200229F5D9F5E0012003900107F06B15
:10F3F0000840029006D1F06B0843F063F06B0840C0
:10F40000069006980191834F3868C00533D403985D
:10F410000402386820433860FFF7A2FB05463868CD
:10F42000204228D1FFF79CFB411B03200229F6D97B
:10F43000D0E001210A0630680392904330600491C5
:10F440004F06FFF78DFB0546022C09D13068384284
:10F4500074D0FFF785FB411B03200229F6D9B9E0E0
:10F460003068384200D195E0FFF77AFB411B03205A
:10F470000229F5D9AEE0F06D05998968012906D019
:10F48000052900D090E004210843F065F06D039950
:10F490000843F06591E091433160A00431688143F5
:10F4A0003160002B059C3AD0FFF75AFB05463068C7
:10F4B000384200D091E6FFF753FB401B6428F6D991
:10F4C000039807B0F0BD000281433160FFF748FBAD
:10F4D00005463068384200D182E6FFF741FB401B09
:10F4E0000228F6D9039807B0F0BD7F2000027168AA
:10F4F0008143606900020843706071E6012188431E
:10F500003066FFF72DFB0546306E800700D46CE6B1
:10F51000FFF726FB411B03200229F5D95AE0FFF72C
:10F520001FFB05463068384200D156E6FFF718FB4E
:10F53000401B6428F6D9039807B0F0BDF06838493D
:10F5400001400598026A446A836AC56A0195056BA1
:10F550000295406B0A43224319021143019A114359
:10F56000029A11430143F160306803990843306007
:10F5700004980007F1680143F160FFF7F1FA0446CF
:10F58000306838420AD1FFF7EBFA011B0320022949
:10F59000F6D91FE0F06821490140F160002007B072
:10F5A000F0BDC04600100240039A9043F065F06D34
:10F5B00004229043F06500290ED0174CFFF7D0FAD3
:10F5C0000546F06D800715D4FFF7CAFA411B0320EA
:10F5D000A142F6D907B0F0BD0F4CFFF7C1FA0546BE
:10F5E000F06D800706D5FFF7BBFA411B0320A1424F
:10F5F000F6D9EFE702980028059A00D0FAE5F06BFB
:10F6000001998843F063F5E50024F4000800002028
:10F61000040000200070004088130000FCFFFEEE94
:10F620008C80C111401E010E01D001207047074996
:10F63000074A5060074803680B400321890759189F
:10F64000016000209060072111607047FFFFFF00FC
:10F6500010E000E020ED00E0B0B58421415C01291C
:10F6600001D10220B0BD0146843124224A600268E3
:10F67000136814680125AC4314606C07A34313603E
:10F680000022426610460A7020224A60B0BD7047D0
:10F6900070470000F0B583B0054668352A7F012A1F
:10F6A00002D1022003B0F0BD064688362422326023
:10F6B00007683A6802923A680124A2433A60072236
:10F6C0005206BB6893430B43BB60406E0028204644
:10F6D00015D0B8680190B868400F2E49095C2E4AD1
:10F6E000105CC00001F0B0FD044601980001400F1D
:10F6F0002849095C284A105CC00001F0A5FD28805B
:10F700006C8002983860002028772021316003B097
:10F71000F0BDC046F0B583B0054668352A7F012AA2
:10F7200002D1022003B0F0BD0646883624223260A2
:10F7300007683A6802923A680124A2433A600722B5
:10F740005207BB6893430B43BB60406E00282046C2
:10F7500015D0B8680190B868400F0E49095C0E4A90
:10F76000105CC00001F070FD044601980001400FDC
:10F770000849095C084A105CC00001F065FD28805A
:10F780006C8002983860002028772021316003B017
:10F79000F0BDC046181501081015010870477047E4
:10F7A00070B5002817D005468435242169600168AA
:10F7B0000A6801239A430A6000260E604E608E603C
:10F7C000044600F075FA3046EE606E60AE60E666A4
:10F7D0002E70266770BD012070BD7047F0B589B0EE
:10F7E0000368DF69202501210691CE0232462F32BF
:10F7F0003A40196808900446803405939B68202A93
:10F800000395079710D108462840012212071A4095
:10F8100080181F4616D00898416F002900D156E184
:10F820000898884709B0F0BD30460F3007421F46A0
:10F8300008D0C8480840069A1207551C3D402818B1
:10F8400000D091E0049410260846304042424241E4
:10F85000079D284630404442444114430898C06EF6
:10F86000401E421E9041204337D001240126B2059C
:10F870003A4050425041EA022246059B00D50246DA
:10F88000002A00D1A6E0280606D580200840F2050F
:10F890001740C01900D0B0E140230A461A40504238
:10F8A00050416A06224600D50246002A00D13DE1B9
:10F8B000B2070A40504250412A02224600D5024671
:10F8C000002A00D1A4E1002900DAA6E1E80100D570
:10F8D000A7E1002C00D0FAE0A7E1089C5C34059871
:10F8E00006628068400600D57BE0618822886088D7
:10F8F000002800D1EBE08A4200D1E8E0EFF310806D
:10F900000790012383F310880920450108983746A2
:10F9100006683468AC433460079C84F31088EFF3C6
:10F920001084079483F310880568AE68C14C344096
:10F93000AC60079C84F31088049C039DE560002460
:10F940004467C466EFF3108483F3108803681D686E
:10F95000BD431D6084F3108802230367511A89B2E6
:10F96000FFF795FE09B0F0BD009204940798069B3E
:10F970001840424242411802019108404442444129
:10F980001443059B05D101201862049C226902439F
:10F99000226101203C460290044060426041079988
:10F9A0008A07069A00D50246002A06D1022018626C
:10F9B0000498016904220A43026160426041079988
:10F9C0004A07069A5CD4002A049C5DD00798000779
:10F9D00063D46CE0300518620898FFF7E0FE09B0C8
:10F9E000F0BD04980068006841688AB2002A6ED0B1
:10F9F00023889A426BD261800068800635D4EFF389
:10FA00001082012181F310888C4B203308980568FF
:10FA100037462E681E402E6082F31088EFF3108266
:10FA200081F3108803689D688D439D6082F3108880
:10FA3000EFF3108281F3108803689D684026B54378
:10FA40009D6082F31088049B039ADA600022C266EC
:10FA5000EFF3108281F3108800680168B9430160F8
:10FA600082F310881868FEF781FE0221089801676A
:10FA700021886288891A89B2FFF709FE09B0F0BDB2
:10FA80000246002A049CA1D10420186220690222A7
:10FA9000024322610798000709D50198039A104094
:10FAA000054304D0082018622269024322610298AB
:10FAB000820601990A4050425041079A324208D1C9
:10FAC00006980028039A09D0206900280DD109B0B2
:10FAD000F0BD069006980028039AF5D11E622069B1
:10FAE0001043206120690028F1D0079810400DD004
:10FAF0001140009807400F43049C08D00898416FBC
:10FB0000002904D0089C204688472368049C20696B
:10FB10002822024098684021084080181CD108988B
:10FB2000FFF75BFE0020206109B0F0BDEFF310810C
:10FB300086F310880898026814689C43146081F367
:10FB40001088002181670499039A8A6000F0A0FA66
:10FB500009B0F0BD20010004EFF31080029E86F38F
:10FB6000108809225201089B1C682568954325606E
:10FB700080F31088EFF3108086F310881A68946879
:10FB80002C4D2540956080F31088D86E01280CD14B
:10FB9000EFF31082029880F31088089800680368D9
:10FBA0001024A343036082F31088049C0398E06050
:10FBB0000020089AD066506710688068400622D5F9
:10FBC000EFF31082029880F3108808980068836829
:10FBD0008B43836082F310882168002913D0164874
:10FBE00088630846FEF7FAFD002800D16FE7049805
:10FBF0000068816B884709B0F0BD0898816F0029C3
:10FC000000D00DE663E70898FFF7E7FD09B0F0BD07
:10FC10000898FFF7C3FD09B0F0BD0026E80100D445
:10FC200057E63446002C00D051E70898FFF730FD26
:10FC300009B0F0BDFEFFFFEF49020108DFFEFFFF44
:10FC4000B0B500281ED004460546843568680028F3
:10FC500004D100202870204600F042F8242068607B
:10FC6000206801680125A9430160A06A002802D02C
:10FC7000204600F017FA204600F0B8FD002803D017
:10FC80002846B0BD0120B0BD0920C00221684A68E5
:10FC900082434A6088682A2290438860086801226B
:10FCA00002430A60204600F067FA05462846B0BDC8
:10FCB00080B500687149884200D080BD01204004B1
:10FCC00006490A6882430A60052000070C21FEF7F6
:10FCD000E1FD1C20FEF7A2FF80BDC0463C100240A3
:10FCE000B0B594B005460024139412941194109466
:10FCF0000F9402A8001D3021FEF786FC28685F499A
:10FD0000884201D014B0B0BD0225029502A8FEF7CA
:10FD1000FFFF002801D0FEF724FD1348826801216F
:10FD200013914B041A43826082681A400192019A2F
:10FD300002680A430260006808400190129411941E
:10FD400010950C200F900198052000070FA9FEF7D1
:10FD50001FFE1C25284621462246FEF77BFF28462B
:10FD6000FEF76CFF14B0B0BD34100240F0B581B0A6
:10FD70008C23C358202B12D1012400290CD0002A37
:10FD80000AD001231C038568A5420CD1CC070AD0F8
:10FD90000469002C07D11C46204601B0F0BD0224A6
:10FDA000204601B0F0BD0024C46605680A4EB54285
:10FDB0000DD06D682D020AD5EFF3108583F31088FE
:10FDC0009B06066837681F43376085F3108800F08C
:10FDD00019FE204601B0F0BD0080004070B50068FB
:10FDE0002649884200D070BD254800780D2801D0F2
:10FDF0000A2822D1234C6188234800254554658078
:10FE000022A10B22FEF792FBED4300281FD0224CCB
:10FE100022A1172220462B4600F072F81A4E3046D7
:10FE2000FEF7B2FB82B2204631462B4600F068F85E
:10FE300020A11F2220462B4618E012494A882E4B4B
:10FE40009A420DD8104B9854501C488010E012482C
:10FE500020A120222B4600F053F80120607007E01B
:10FE600000204880C3430C4824492A2200F048F867
:10FE7000094803490122FFF779FF70BD00440040A3
:10FE80000805002070000020080100204150505F4C
:10FE9000325F424F4F540000740000205B415050CD
:10FEA0005D20556E6B6E6F776E20636F6D6D616E4A
:10FEB000643A20000D0A5B4150505D204176616933
:10FEC0006C61626C653A204150505F325F424F4F27
:10FED000540D0A005B4150505D20434D443A20418F
:10FEE00050505F325F424F4F5420726563656976B0
:10FEF00065640D0A00000000FE0300005E150108A5
:10FF0000F0B585B0074688203858202810D1012048
:10FF100000290BD0002A09D001200403BD68A542A6
:10FF200009D1CD0707D03D69002D04D105B0F0BD42
:10FF3000022005B0F0BD019302913D46543539468B
:10FF400088310020039088602120009108601646C7
:10FF5000FEF706FE04906E802E80B868A04202D1A3
:10FF6000386900285ED0029C019E039A396868882F
:10FF700000285ED0701C454B2ED0002E49D0039235
:10FF8000C869000608D4FEF7EBFD0499401AB04298
:10FF900067D839680868F3E7002C03D020788862B6
:10FFA000641C07E0039A1088384B18408862921C42
:10FFB000039200246888401E688068880028DFD18A
:10FFC00037E0108818408862921C00246888401E20
:10FFD0006880688800282CD0C869000608D4C869E1
:10FFE000000605D4C869000602D4C8690006F3D526
:10FFF000002CE6D020788862641CE7E7108818405F
:020000040801F1
:100000008862921C00246888401E688068880028E6
:100010000FD0C869000622D5002CEFD02078886266
:10002000641CF0E70024029A019E39686888002861
:10003000A0D1CA690020520614D4002E0FD0721C21
:1000400015D1009BCA6952060DD4CA6952060AD45A
:10005000CA69520607D4CA695206F3D503E0FEF70F
:100060007FFD0320009B2021196005B0F0BD0446F0
:10007000FEF776FD0499401AB042F2D8386801685C
:10008000C0694006F4D52046ECE7C046FF010000F9
:100090007047FEE7FEE77047704780B5FEF764FDE6
:1000A00080BD7047B0B5816A0A070CD4CA0714D165
:1000B0008A071CD44A0724D4CA062CD48A0634D40E
:1000C0004A063CD44CE00122D20303685C689443A6
:1000D000826B22435A60CA07EAD0012252040368A5
:1000E0005C689443C26A22435A608A07E2D50122BF
:1000F000120403685C689443026B22435A604A0707
:10010000DAD50122920403685C689443426B22436F
:100110005A60CA06D2D50122120303689C68944330
:10012000C26B22439A608A06CAD501225203036831
:100130009C689443026C22439A604A0610D50122BF
:100140001305026854689C43456C2C4354609D42DF
:1001500006D103235B0554689C43836C234353609F
:10016000090607D50121C904026853688B43C06C96
:1001700018435060B0BD0000F0B583B00446064699
:1001800084360025F560FEF7EBFC03462068016825
:10019000090721D502952B48009001256905002209
:1001A00020461F4600F0CCFC002812D0EFF3108050
:1001B00085F3108821680A6880239A430A6080F3D7
:1001C0001088032020228821029D6250357003B0E0
:1001D000F0BD20683B46029D0068400726D51948BF
:1001E00000900127B9050022204600F0A9FC002854
:1001F0001CD0EFF3108087F3108809214901226891
:1002000013688B43136080F31088EFF3108087F33B
:10021000108821688A68BA438A6080F310880320B6
:1002200020228C216250357003B0F0BD2020706018
:10023000B060E56670212A4628466250357003B0EA
:10024000F0BDC046FFFFFF0180B5806A0146563110
:1002500000220A8156214252FFF7BFFA80BD0000FA
:10026000F0B581B08C2141580268222910D1014695
:100270005C318B88526A1A40836D1A804A88521EFC
:100280004A809A1C82654A88002A07D001B0F0BDD6
:10029000906908210143916101B0F0BD03468C33A0
:1002A000EFF31084012282F3108809256D0106689E
:1002B0003768AF43376084F31088EFF3108482F31C
:1002C00010880568AE689643AE6084F310882024D9
:1002D0001C600023436703670468C74DAC420DD020
:1002E000646824020AD5EFF3108482F3108895061F
:1002F00006683768AF43376084F31088C46E012CFA
:1003000015D1C366EFF3108382F310880468256863
:1003100010229543256083F310880368DC69E406A6
:1003200000D51A620988FFF7B2F901B0F0BDFFF7F6
:1003300055FD01B0F0BDC046F0B587B00446016878
:10034000C8690A6803928A6805928C22A258222AF8
:1003500000D0BBE023465C3320210291998900291B
:1003600000D1B9E00299084000D1B5E026468C36AC
:100370009D8801210598084005900691080203997F
:10038000014003910493019507E02046FFF726FD05
:10039000049B019DB80600D49EE02068416A294074
:1003A000A26D11805988491E5980911CA165C769A9
:1003B00079073CD0039B5A425A41FB07069B00D069
:1003C0001346002B04D10122026273681343736049
:1003D000059B5A425A41BB07069B00D51346002B8A
:1003E00005D1022202627268042313437360059BE5
:1003F0005A425A41002906990DD511460029049BFD
:100400000CD104210162706802210143716070689F
:10041000002806D10BE00029049BF2D07068002868
:1004200005D02046FFF7D9F9049B0020706058885A
:100430000028AFD1EFF31081012080F31088020271
:1004400023681D6895431D6081F31088EFF31081C8
:1004500080F3108822689368E24D2B40936081F30B
:100460001088029931600021616721672268DE4BA4
:100470009A420FD0526812020CD5EFF3108200920C
:1004800080F31088830625682A689A432A60009AB8
:1004900082F31088E26E012A00D076E7E166EFF37E
:1004A000108180F310882268136810208343136042
:1004B00081F310882168CA69D20600D50862049DBC
:1004C00029882046FFF7E3F82B4662E7886908226F
:1004D00002438A6107B0F0BD58880028FAD0998994
:1004E0008842F7D2EFF31080012181F31088BD4AD2
:1004F000521C23689D6815409D6080F31088074852
:100500006067EFF3108081F3108821680A68029B0E
:100510001A430A6080F3108807B0F0BD6102010839
:10052000F0B581B08C2141580268222911D10146D1
:100530005C318B88526A1A40836D1A704A88521E49
:100540004A80826D521C82654A88002A07D001B019
:10055000F0BD906908210143916101B0F0BD0346EF
:100560008C33EFF31084012282F3108809256D018A
:1005700006683768AF43376084F31088EFF3108460
:1005800082F310880568AE689643AE6084F31088E5
:1005900020241C600023436703670468924DAC422B
:1005A0000DD0646824020AD5EFF3108482F310881A
:1005B000950606683768AF43376084F31088C46EC9
:1005C000012C15D1C366EFF3108382F31088046801
:1005D000256810229543256083F310880368DC6941
:1005E000E40600D51A620988FFF751F801B0F0BDA2
:1005F000FFF7F4FB01B0F0BD00800040F0B587B01C
:1006000004460168C8690A6803928A6805928C22C8
:10061000A258222A00D0BDE022465C32202102915D
:100620009189002900D1BBE00299084000D1B7E0D0
:1006300026468C369588012105980840059006913C
:1006400008020399014003910492019507E02046B6
:10065000FFF7C4FB049A019DB80600D4A0E020680F
:10066000406A2840A16D08705088401E5080A06DDF
:10067000401CA0652068C76979073CD0039B5A429B
:100680005A41FB07069B00D01346002B04D10122E0
:100690000262736813437360059B5A425A41BB0759
:1006A000069B00D51346002B05D102220262726818
:1006B000042313437360059B5A425A41002906994B
:1006C0000DD5114600290CD1042101627068022168
:1006D0000143716070680028049A06D10BE000297C
:1006E000F2D070680028049A05D02046FFF775F80C
:1006F000049A0020706050880028ADD1EFF310817B
:10070000012080F31088020223681D6895431D6054
:1007100081F31088EFF3108180F3108822689368CA
:10072000304D2B40936081F3108802993160002195
:10073000616721672268A44B9A420FD05268120267
:100740000CD5EFF31082009280F3108883062568A1
:100750002A689A432A60009A82F31088E26E012A7E
:1007600000D074E7E166EFF3108180F3108822680F
:10077000136810208343136081F310882168CA69CD
:10078000D20600D50862049D29882046FEF77FFF27
:100790002A4660E78869082202438A6107B0F0BDF3
:1007A00050880028FAD091898842F7D2EFF3108060
:1007B000012181F310880B4A521C23689D68154063
:1007C0009D6080F31088DC486067EFF3108081F350
:1007D000108821680A68029B1A430A6080F3108817
:1007E00007B0F0BDFEFFFFEF00800040F0B581B024
:1007F00004460268106873490140A06823690343F6
:10080000606918430843E3691843106003273803FD
:1008100051688143E06808435060A1696A4DAA426B
:1008200002D0206A084300E008469168674E0E40F7
:1008300006439660D06A0F218843616A0843D062FC
:100840000026634882420EDD624882421DD0AA42E1
:1008500011D0614882420CD1624800688007000FC5
:10086000614E365811E05D48824208D05C488242B1
:100870000BD0102609E05B480068000A01E05948E7
:1008800000680C260640584886592046683000907B
:100890005648AA4214D00125EA03934222D1082ED9
:1008A00000D986E07E4436797600B74404825A82C5
:1008B0004D8282825900FEF72DFC002848D177E056
:1008C0000125082E00D974E07E4436797600B744BD
:1008D00004702170197070701F00FEF71BFC002857
:1008E00014D165E0082E64D87E4436797600B7448A
:1008F00004604E60316060604D00FEF70BFC002824
:100900002CD155E0FEF718FC002851D0616A01E0B7
:100910000120C0034900364A515A00F095FC626834
:100920005743B84245D31103884242D8010E5608B6
:100930000002002380195941FDF744FC2E4941185B
:100940002E4A914232D334E0FEF7F6FB00282FD036
:10095000616A06E0FEF7F0FB002829D0616A16E024
:1009600010464900224A515A00F06EFC400061686E
:100970004A08101800F068FC0246103A1D498A42E5
:1009800017D201400007400F08430FE0104649000E
:10099000174A515A00F058FC61684A08101800F0D4
:1009A00053FC01461039134A914202D22168C860B3
:1009B000002513480099086000206067A06728465A
:1009C00001B0F0BDF369FFCF00800040FFF4FF11DC
:1009D000FF4B0040004C0040003801400044004004
:1009E0000048004054100240001501080024F400A3
:1009F000E8140108F0FF000000FDFFFF00FD0F00FC
:100A000001000100F0B55C23C252816500214167FD
:100A100003465C335A80856804468C34002D12D01E
:100A200001263707BD4208D03603B54214D1056907
:100A3000002D0ED13D4D9D800FE00569002D05D0A4
:100A40003F259D8009E00569002D02D07F259D800E
:100A500003E0FF259D8000E09980616022212160F4
:100A6000EFF31084012181F310880568AE680E430E
:100A7000AE6084F310880C034D07466EAE4202D17F
:100A80009B899A421BD202698368A34204D1002A3F
:100A90001ED0294A426703E0274B4367002A19D03A
:100AA000EFF3108281F310880902006803680B439A
:100AB00020211943016082F310880020F0BD0269F3
:100AC0008368A34213D1002A21D0194A426712E059
:100AD0001A4A4267EFF3108281F3108800680168B8
:100AE00020230B43036082F310880020F0BD104BDD
:100AF0004367002A0DD0EFF3108281F310880B02B8
:100B0000046825681D43256082F3108801E0094AC6
:100B10004267EFF3108281F3108809070068836849
:100B20000B43836082F310880020F0BDFF010000BA
:100B3000FD050108390301082105010861020108CA
:100B4000F0B585B01F4615460E460368D969314099
:100B5000891B4A424A410021954222D10A9C002C1D
:100B600022D00391611C24D1D9693140891B4A42AA
:100B70004A41954231D1D9693140891B4A424A41A3
:100B800095422AD1D9693140891B4A424A4195424E
:100B900023D1D9693140891B4A424A419542E3D069
:100BA0001BE0084605B0F0BDFDF7DAFF032005B0F5
:100BB000F0BD402E049001D0802E14D1FDF7D0FF5F
:100BC000C01BA0420CD8049800680168C06930407E
:100BD000801B414241418D42F0D0039805B0F0BDE9
:100BE000032005B0F0BD8430019001200090C002C8
:100BF000029006E0C8693040801B414241418D426D
:100C0000EBD1FDF7ADFFC11B0320A1423FD80499F2
:100C100009680A685207EDD5CA69120739D4CA694A
:100C2000029B1A42E6D0029A0A62EFF31082012177
:100C300081F3108809235B01049C246825689D4387
:100C4000256082F31088EFF3108281F31088049BF3
:100C50001B689C682A4D25409D60049B82F3108888
:100C6000DA6E012A0BD1EFF3108281F31088196834
:100C70000B681024A3430B60049B82F3108820218F
:100C8000019CA1600022DA665A672270E16005B01B
:100C9000F0BD08250D62EFF31081009880F31088F5
:100CA00009225201049B1B681C6894431C6081F359
:100CB0001088EFF3108180F31088049A126893680B
:100CC0000F4C1C40049B946081F31088D96E01295D
:100CD0000CD1EFF31081012282F310881A68136897
:100CE0001024A3431360049B81F310882021019AF0
:100CF00091600021D96659671170D56005B0F0BDCB
:100D0000FEFFFFEF80B50248FEF768FD80BDC046DC
:100D100074000020A2B0E449E4480860FDF72EFF0B
:100D200062B600251A95199518951795169515957B
:100D300001246002FDF7AAFF03200F9040072190D5
:100D40006006209060041F9008261E961D950227BD
:100D50001C971B97402019901895240217941497FC
:100D600014A8FEF72DFA002803D0EFF3108072B616
:100D7000FEE70E960D94139512951197072010908B
:100D800010A801242146FEF7CDF8002803D0EFF388
:100D9000108072B6FEE7189517951695159514955F
:100DA000F5490868204308600868204010901098B2
:100DB00008680E9A10430860086810401090109858
:100DC000086838430860086838401090109805207B
:100DD00006070F98C702304639462A46FDF7B8FE87
:100DE000E9480E992A46FDF7B3FEE84818210C9110
:100DF0002A46FDF7ADFE179516951594149714AF76
:100E00000B9630463946FDF7C3FD17951695159498
:100E10000E981490DC483946FDF7BAFD17951695E3
:100E200015940C981490D9483946FDF7B1FDD8486F
:100E30000C21E1225202D74B036042608560C560FD
:100E4000056141618561C561056245628562FEF7A4
:100E5000F7FE002803D0EFF3108072B6FEE7CC480F
:100E60000021FEF757FC002803D0EFF3108072B684
:100E7000FEE7C74800242146FEF70CFC002803D0FB
:100E8000EFF3108072B6FEE7C148FEF7E5FB0028DD
:100E900003D0EFF3108072B6FEE7E543B748006871
:100EA000B74FB84269D10294B94CC4A1122220466E
:100EB0002B46FFF725F8089514ADC5A128463A46FC
:100EC000FDF708FA2846FDF75FFB82B22046294667
:100ED000089D2B46FFF714F87D20C6003046FDF72D
:100EE000C9FCBDA1392220462B46FFF709F801961F
:100EF0003046FDF7BFFCC749012220460392FEF7AA
:100F000035FFFDF72DFE0E90C34C607800280F9E34
:100F10009E4F39D06420FDF7ADFC9D4CC549202281
:100F200020462B46FEF7ECFF019D2846FDF7A2FC6C
:100F3000EFF3108072B62046FEF732FCFDF788FC16
:100F40009049C86A039A1043C862C86A800708D4E7
:100F5000C86A800705D4C86A800702D4C86A8007B7
:100F6000F3D5B548B549016002994160C83D856037
:100F7000B3490160B3490160FEE7854886A120229C
:100F80002B46FEF7BDFFFEE70398C1020C9100035C
:100F90000A9002E060780028BCD12078022800D1B5
:100FA00086E0012827D0002800D0CAE0082538466E
:100FB0002946FDF7C5FD102438462146FDF7C0FD42
:100FC0000B9F38460A99FDF7BBFD6F482946089DDF
:100FD000FDF7B6FD38466D4F0C99FDF7B1FD6C4835
:100FE000904922468C4C2B46FEF78AFF0D982C30F8
:100FF000FDF740FCA5E00825012438462946059563
:101000002246FDF7A5FD64200990FDF733FC00267C
:101010003846294632460796FDF79AFD1025069573
:10102000384629462246FDF793FD0998FDF722FC34
:10103000384629463246FDF78BFD0B9F38460A9D00
:101040002946264622460494FDF782FD0998FDF7BD
:1010500011FC38462946079D2A46FDF779FD4A4886
:10106000059C21463246FDF773FD099E3046FDF78B
:1010700001FC454821462A46FDF76AFD38460C9D8D
:101080002946049A644CFDF763FD30460F9EFDF738
:10109000F1FB38463D4F2946079A089DFDF758FD5C
:1010A0003B485F49069A49E008ED00E000E000088F
:1010B00008240125384621462A46FDF749FD0B9EA6
:1010C00030460A992A46FDF743FD002730460C9921
:1010D0003A46FDF73DFD102109912C483A46FDF7AF
:1010E00037FD294821463A46FDF732FDFA200790A0
:1010F000FDF7C0FB254821463A46FDF729FD30465D
:101100000A993A46214FFDF723FD30460C992A46AD
:10111000FDF71EFD3846099E31462A46FDF718FDAB
:10112000194821463C4C2A46089DFDF711FD0798B9
:10113000FDF7A0FB1648394932460F9E2B46FEF7B5
:10114000DFFEFDF70DFD0E99401A3749884200D2A7
:1011500020E72078401C35494143090C7143401A6F
:101160002070FDF7FDFC0E901C22094830492B46EB
:10117000FEF7C6FE0EE7C0463410024008ED00E060
:1011800000E0000834100240000C00500004005041
:1011900074000020004400405B4150505D204552E7
:1011A000523A204661696C656420746F20736574DF
:1011B0002056544F52210D0A000000000D0A5B41D9
:1011C00050505D20537461727465642040200000AB
:1011D00030782530386C58005B4150505D205365A5
:1011E0006E6420274150505F325F424F4F5427209A
:1011F0006F766572205541525420746F206A756D68
:101200007020746F20626F6F746C6F616465720D13
:101210000A0000000805002070000020AB1501083E
:101220009A15010889150108891300005655000018
:10123000201501083D1501080030004055550000FB
:10124000AAAA0000CCCC000043088B421AD300228B
:1012500003098B4279D3030A8B425ED3030B8B4283
:1012600042D3030C8B4227D30902FF2212BA030C8C
:101270008B4202D31212090203D0030B8B4233D3E9
:101280001AE0D3E0411A8041401C704703460B43EB
:1012900071D443088B42F5D3002203098B4254D307
:1012A000030A8B4239D3030B8B421DD3030C8B42B1
:1012B00002D394466EE0090AC30B8B4201D3CB03E1
:1012C000C01A5241830B8B4201D38B03C01A524187
:1012D000430B8B4201D34B03C01A5241030B8B4289
:1012E00001D30B03C01A5241C30A8B4201D3CB0274
:1012F000C01A5241830A8B4201D38B02C01A524159
:10130000430A8B4201D34B02C01A5241030A8B425B
:1013100001D30B02C01A5241CDD2C3098B4201D373
:10132000CB01C01A524183098B4201D38B01C01AF1
:10133000524143098B4201D34B01C01A5241030968
:101340008B4201D30B01C01A5241C3088B4201D317
:10135000CB00C01A524183088B4201D38B00C01AC4
:10136000524143088B4201D34B00C01A5241411AEB
:10137000524110007047CA0F00D04942031000D3F9
:101380004042534000229C4603098B422DD3030A5E
:101390008B4212D38901FC2212BA030A8B420CD36E
:1013A000890192118B4208D3890192118B4204D397
:1013B000890137D0921100E08909C3098B4201D31A
:1013C000CB01C01A524183098B4201D38B01C01A51
:1013D000524143098B4201D34B01C01A52410309C8
:1013E0008B4201D30B01C01A5241C3088B4201D377
:1013F000CB00C01A524183088B4201D38B00C01A24
:101400005241D9D243088B4201D34B00C01A5241FA
:10141000411A00D201465241104663465B1000D388
:101420004042704763465B1000D3404201B5002143
:10143000004201D0C9430846C046C04602BD30380C
:101440000A2801D201207047002070473031323322
:1014500034353637383941424344454640305800E8
:10146000303132333435363738396162636465661A
:101470004030780004000008000000000000000276
:10148000000100001000000000000000000000004B
:10149000000000000000000000000000000000004C
:1014A0000000000000000000010000000200000039
:1014B0000300000004000000060000000700000018
:1014C000080000000900000000000000000000000B
:1014D0000000000000000000010000000200000009
:1014E00003000000040000000100020004000600E8
:1014F00008000A000C0010002000400080000001DD
:1015000000000000040000000200000008000000CD
:1015100001010103070100000804020408010101A0
:101520005B4150505D20537769746368696E672032
:101530007061747465726E2E2E2E0D0A005B415020
:10154000505D2054726967676572696E67204957FC
:1015500044472072657365742E2E2E0D0A005B4180
:1015600050505D204552523A204C696E6520746F90
:101570006F206C6F6E672C206275666665722063E3
:101580006C65617265640D0A005B4150505D2050CE
:1015900061747465726E20300A005B4150505D20AA
:1015A0005061747465726E20310A005B4150505D69
:1015B000205061747465726E20320A00E0150108D3
:1015C000000000201000000018E10008F0150108DC
:1015D00010000020000F000038E1000800000000AB
:1015E00001000000040000000024F40000000000DE
:040000050800E0BD52
:00000001FF
