:020000040800F2
:106000000807002065610008F16E00083B6E00087B
:106010000000000000000000000000000000000080
:10602000000000000000000000000000F56E000805
:106030000000000000000000F36E0008F76E00088A
:1060400077610008000000007761000877610008B0
:1060500077610008776100087761000877610008C0
:106060000000000077610008776100087761000890
:106070007761000877610008776100080000000080
:106080007761000800000000000000007761000850
:106090000000000077610008776100087761000860
:1060A0007761000877610008776100087761000870
:1060B0007761000800000000000000000000000000
:1060C00000F002F800F03EF80CA030C808382418A0
:1060D0002D18A246671EAB4654465D46AC4201D120
:1060E00000F030F87E460F3E0FCCB6460126334214
:1060F00000D0FB1AA246AB4633431847C014000039
:10610000E0140000103A02D378C878C1FAD85207D8
:1061100001D330C830C101D504680C60704700005D
:106120000023002400250026103A01D378C1FBD8B3
:10613000520700D330C100D50B6070471FB51FBD9B
:1061400010B510BD00F01CF91146FFF7F7FF01F084
:1061500065F900F034F903B4FFF7F2FF03BC00F077
:106160003BF900000748804707480047FEE7FEE785
:10617000FEE7FEE7FEE7FEE704480549054A064B51
:1061800070470000F96F0008C16000080801002096
:1061900008070020080300200803002030B5441C35
:1061A00003E00178401C00290DD08107F9D10B4B89
:1061B000DD0104C8D11A91432940FAD0001B0A0618
:1061C00003D0C01E30BD001B30BD0A0401D0801EAC
:1061D00030BD0902FCD0401E30BD000001010101AC
:1061E00001E004C0091F0429FBD28B0701D50280FE
:1061F000801CC90700D00270704700290BD0C3076C
:1062000002D00270401C491E022904D3830702D524
:106210000280801C891EE3E70022EEE70022DFE710
:10622000002203098B422CD3030A8B4211D3002393
:106230009C464EE003460B433CD4002243088B426D
:1062400031D303098B421CD3030A8B4201D39446FA
:106250003FE0C3098B4201D3CB01C01A52418309ED
:106260008B4201D38B01C01A524143098B4201D3A7
:106270004B01C01A524103098B4201D30B01C01AD2
:106280005241C3088B4201D3CB00C01A524183084C
:106290008B4201D38B00C01A524143088B4201D379
:1062A0004B00C01A5241411A00D2014652411046D9
:1062B00070475DE0CA0F00D04942031000D340424E
:1062C000534000229C4603098B422DD3030A8B4284
:1062D00012D3FC22890112BA030A8B420CD3890122
:1062E00092118B4208D3890192118B4204D3890108
:1062F0003AD0921100E08909C3098B4201D3CB0146
:10630000C01A524183098B4201D38B01C01A5241FA
:1063100043098B4201D34B01C01A524103098B42FE
:1063200001D30B01C01A5241C3088B4201D3CB00E9
:10633000C01A524183088B4201D38B00C01A5241CC
:10634000D9D243088B4201D34B00C01A5241411AA3
:1063500000D20146634652415B10104601D34042D1
:10636000002B00D54942704763465B1000D3404282
:1063700001B50020C046C04602BD70477047704757
:10638000754600F025F8AE46050069465346C0083C
:10639000C000854618B020B5FFF7EEFE60BC0027B0
:1063A0004908B6460026C0C5C0C5C0C5C0C5C0C5E1
:1063B000C0C5C0C5C0C5403D49008D46704710B539
:1063C0000446C046C0462046FFF7C5FE10BD00008B
:1063D00000487047A400002001491820ABBEFEE72A
:1063E000260002007047000070B5044600F0CAF8AD
:1063F0000546601C02D004480078241800F0C2F85A
:10640000401BA042FAD370BD00000020F0B500236D
:1064100003249AE02A4601259D402A407ED00E7929
:10642000B607B60F012E01D0022E16D18668274678
:10643000B4465E00B646B7406646BE43B446CF6833
:106440007646B7406646374387604668AE430D7967
:10645000ED06ED0F9D40354345600D79ED43AD07E9
:1064600008D0C5685F002646BE40B5438E68BE4072
:106470002E43C6600D79AD07AD0F022D0ED1DD089C
:10648000AD002D18AC462D6A5E07F60E0F27B740FB
:10649000BD430F69B7402F4365462F6205685F0013
:1064A0002646BE40B5430E79B607B60FBE402E4312
:1064B00006604D68AD03AD0F46D09E08264DB60070
:1064C0007519AC462D6E9E07F60E0F27B740BD43DB
:1064D00005273F07B84201D100270FE01F4FB84200
:1064E00001D101270AE01E4FB84201D1022705E081
:1064F0001C4FB84201D1032700E00527B7402F43C6
:10650000154D664637662D684E689543F60200D5F0
:106510001543114F3D607D68954300E014E04E68DF
:10652000B60200D515437D600B4D80356E684F680F
:106530009643BF0300D516436E602E684F6896439E
:10654000FF0300D516432E605B1C0A681546DA402F
:1065500000D05FE7F0BD00000018024000040050CA
:1065600000080050000C0050426913460B401B0409
:1065700091430B4383617047002A01D081617047CA
:106580008162704701488068704700000000002069
:1065900002488168027889188160704700000020F5
:1065A00010B50848002401688215114301600320DA
:1065B00000F00AF8002801D0012401E000F028F8DA
:1065C000204610BD0020024070B50F4E00243178E7
:1065D0000546002915D07D20C000FFF721FE0146A9
:1065E0000A480068FFF71CFE00F044FB002808D1B1
:1065F000042D06D200222946401E00F01FF87560C7
:1066000000E00124204670BD000000200C000020A6
:1066100008B5094801680122114301600068104073
:10662000009005484038C26B01040A43C263C06B46
:106630000840009008BD00004010024010B500F076
:10664000CBFE10BD10B50F4C2168032252029143BE
:1066500001432160C11FFF39FA390ED10A480621D2
:10666000006848430949FFF7DBFD401C02E00028B1
:1066700005D0401E61694905F9D4002010BD0320F2
:1066800010BD0000007000400C00002040420F00D0
:10669000F8B50F46060043D04D4D28684007400F1F
:1066A000B84213D22868C008C00038432860FFF7FA
:1066B00069FF044605E0FFF765FF011B454881427D
:1066C00061D828684007400FB842F4D13068424C86
:1066D00081070DD5400704D5A068072109030843A9
:1066E000A060A0680F2109028843B1680843A06038
:1066F0003078C00732D0706801280AD002280BD049
:1067000000280FD03449403103280ED0C9698907C9
:1067100004E02168890301E021688901002906DB82
:106720000120F8BD21684905F8E7096AEFE7A1688B
:10673000C908C9000143A160FFF724FF009006E0EB
:10674000FFF720FF0099411A224881421BD8A06818
:10675000382108407168C9008842F1D12868400793
:10676000400FB84217D91A480168C908C90039430F
:106770000160FFF707FF054607E0FFF703FF411B36
:106780001448814201D90320F8BD11480068400730
:10679000400FB842F1D13078400706D5A0680721F4
:1067A00009038843F1680843A06000F031F8A1684C
:1067B0003C2289091140094A515CC906C90EC840EA
:1067C0000749086007480068FFF7FEFEF8BD0000B3
:1067D0000020024088130000001002405C75000891
:1067E0000C00002004000020064807490068896862
:1067F000064A4904490F8900515CC906C90EC840C0
:10680000704700000C000020001002409C7500083A
:1068100010B5204CA068204A8006400F16D0A06812
:106820008006410F501001290FD0A1688906490F39
:10683000022912D0A0688006400F042823D0A06847
:106840008006400F032821D0002010BD20680121C0
:106850008004400F8140104612E0E1688B07E16838
:106860009B0F4906490F491C032B00D01046FFF728
:10687000D7FCE1684904490E4843E168490F491CC7
:10688000FFF7CEFC10BD0120C00310BD7D2000022B
:1068900010BD0000001002400024F400F8B5040010
:1068A0007ED020783827C007E94D002846D0A86858
:1068B000E96838408907890F102802D008280BD0D2
:1068C00001E0032908D001206268000482420AD155
:1068D00029680143296015E0286880032ED5606887
:1068E0000028DDD02AE0052301211B0489049A42F7
:1068F0002A6802D10A432A60EAE782432A602868AC
:1069000088432860606800280CD0FFF73BFE0646ED
:1069100004E0FFF737FE801B642873D828688003E3
:10692000F7D50BE0FFF72EFE064604E0FFF72AFE40
:10693000801B6428F1D828688003F7D4207880076A
:1069400069D5A868E96838408A070721920FC9020B
:10695000102802D0002813D001E0022A10D0E068ED
:10696000002846D0286888432169084328602868A1
:10697000FF21013108432860FFF704FE06462CE0A2
:106980002A68520502D5E268002A89D06A687F2306
:106990001B029A4363691B021A436A60002800E0E5
:1069A0008DE00ED128688843216908432860286853
:1069B00001218004400F8140A648FFF731FCA64921
:1069C0000860A6480068FFF7FFFD002877D122E0A5
:1069D000FFF7D8FD801B02289FD828684005F7D50F
:1069E00068687F2109028843616909020843686079
:1069F00011E02968FF20013081432960FFF7C2FDC3
:106A0000064605E098E0FFF7BDFD801B022884D80C
:106A100028684005F7D42078914E00072ED5A86845
:106A20008006400F03280AD0A0690028306A16D0DB
:106A3000012108433062FFF7A5FD07460BE0306AED
:106A400080071BD5A06900289FD017E0FFF79AFDAB
:106A5000C01B022870D8306A8007F7D50EE04008C6
:106A600040003062FFF78EFD074604E0FFF78AFD25
:106A7000C01B022860D8306A8007F7D4207840070E
:106A80006CD5A86800278006400F042818D0E86B52
:106A9000C00008D4E96B012000070143E963E96BFA
:106AA0000140012700916F480168C90519D40168A8
:106AB000821511430160FFF765FD00900DE083E052
:106AC000F06980074AD5A06800287DD046E0FFF72E
:106AD00059FD0099401A02282ED862480068C00566
:106AE000F5D5A168012910D004200529F16911D03C
:106AF00049084900F161F1698143F161A06800280A
:106B000016D0FFF73FFD00900EE0F0690121084329
:106B1000F061F3E70143F161F7E7FFF733FD009917
:106B2000411A5148814265D8F0698007F5D50EE0D9
:106B3000FFF728FD009007E05CE0FFF723FD0099D8
:106B4000411A4948814255D8F0698007F5D4002F91
:106B500004D0E96B012000078143E963E069002864
:106B600073D0A9688906490F02294DD0012636063F
:106B70000228286805D0B0432860FFF703FD0446CB
:106B80003AE0B0432860FFF7FDFC074604E0FFF75A
:106B9000F9FCC01B02282DD828688001F7D4616A4F
:106BA000206AA26A0843E16A120211430843216B7A
:106BB0000843E9682D4A11400843E86028683043DB
:106BC0002860E868012100E03DE009070843E8602B
:106BD000FFF7D8FC044604E0FFF7D4FC001B0228B2
:106BE00008D828688001F7D52FE0FFF7CBFC001B01
:106BF000022801D90320F8BD28688001F5D4E8688F
:106C00001B490840E86020E00128F4D0E868226AC7
:106C10008107890F914216D17021626A0140914229
:106C200011D17F21A26A09020140120291420AD1C8
:106C30001F214904E26A0140914204D1400F216BB7
:106C40004007884201D00120F8BD0020F8BD0000B7
:106C5000001002400024F4000C000020040000207A
:106C60004010024000700040881300008C80C11F5B
:106C7000FCFFFEEF094910B5401E884201D90120F2
:106C800010BD074C60610321081F00F0A5FB002028
:106C9000A06107202061002010BD0000FFFFFF0061
:106CA00000E000E070B5040005D025468035A868F6
:106CB000002802D006E0012070BD00202871204687
:106CC00000F026F82420A8602068016849084900DF
:106CD0000160A06A002802D0204600F08EF920460C
:106CE00000F07EFA0128E7D0206841680922D2022C
:106CF00091434160206881682A2291438160206825
:106D00000168012211430160204600F0DBF970BDEB
:106D100010B586B0044614216846FFF77FFA114982
:106D2000206888421CD11048C26B012149040A43E3
:106D3000C263C26B0A400592426B01210A4342635F
:106D4000406B0491084005900C20009002200190B7
:106D5000002002900390052069460007FFF756FBCC
:106D600006B010BD0044004000100240FFB50646CA
:106D700004468036B06883B00D46202802D0022039
:106D800007B0F0BD002D0CD00598002809D00120D7
:106D9000A1680003814206D12069002803D1E807D9
:106DA00001D00120ECE7002030612120B060FFF726
:106DB000E9FB0190274640370598B8820598F8828C
:106DC0000120A1680003814202D12069002802D07D
:106DD0000295002515E00020029012E0002280219B
:106DE000204600F0B1FA002818D10298002819D0E6
:106DF0002168007888620298401C0290F88A401E40
:106E0000F882F88A019B002806980090E6D10022BB
:106E10004021204600F098FA00280AD02020B060D7
:106E20000320ADE728882168C005C00D8862AD1C2D
:106E3000E4E72020B0600020A2E7FEE7F0B587B0CD
:106E400014216846FFF7EAF91848416B01252943E8
:106E50004163416B29400591426B02210A43426321
:106E6000406B052608408C0236070590002221461B
:106E70003046FFF781FB0E4F002218213846FFF7FE
:106E80007BFB0094002401950294694630460394EC
:106E9000FFF7BCFA1820009002946946019503940C
:106EA0003846FFF7B3FA07B0F0BD0000001002400B
:106EB0000004005010B50D480B490160E121490262
:106EC000416000218160C16001618161C161016235
:106ED0000C22416242618162FFF7E4FE002801D08A
:106EE00072B6FEE710BD0000004400401000002014
:106EF000FEE77047704710B5FFF74AFB10BD30B58D
:106F000091B034216846FFF789F9002501200D95DD
:106F10000E950F9540021095FFF794FB0224E001B7
:106F200003900094402005900495102009900C20B7
:106F30000A9020040B90079400030C900894684674
:106F4000FFF7ACFC002801D072B6FEE707200DA9C0
:106F500031C101210DA81095FFF79AFB002801D03F
:106F600072B6FEE711B030BD70B51F4DA96838206C
:106F700001401E481E4C08290DD0430010291BD08B
:106F8000182913D0202914D0286801218004400F2B
:106F90008140184624E02060A8683C218009084010
:106FA0001449085C2168C140216070BD7D20000249
:106FB000F1E70120C003EEE7E9688A07E968920F6C
:106FC0004906490F491C032A00D01846FFF728F943
:106FD0000146E8684004400E4843E968490F491CEF
:106FE000FFF71EF9D7E700000010024000127A00F8
:106FF0000C0000205C750008704710B5018D090772
:1070000007D501684A680123DB039A43836B1A435F
:107010004A60018DC90707D001684A6801235B04F3
:107020009A43C36A1A434A60018D890707D50168EC
:107030004A6801231B049A43036B1A434A60018D7B
:10704000490707D501684A6801239B049A43436BAB
:107050001A434A60018DC90607D502689168012369
:107060001B039943C36B19439160018D890607D5B2
:1070700001688A6801235B039A43036C1A438A60A0
:10708000018D490612D503685A6801210905446C2F
:107090008A4322435A60426C8A4207D1026851688F
:1070A00003235B059943836C19435160018D0906E5
:1070B00007D501684A680123DB04C06C9A43024388
:1070C0004A6010BDFEB505460026803504462E6197
:1070D000FFF758FA01902068006820270007002871
:1070E00017DA25480090002239042046019B00F061
:1070F0002BF900280DD0EFF31080012181F31088C7
:1071000021680A6880239A430A6080F31088AF6080
:1071100028E020680068400727D517480090012123
:10712000002289052046019B00F00EF900281CD0A2
:10713000EFF31080012181F3108821680A68FF2392
:1071400021339A430A6080F31088EFF31080012105
:1071500081F3108821688A68520852008A6080F39F
:107160001088EF602E710320FEBDAF60EF60E66611
:1071700026672E710020FEBDFFFFFF0110B5EFF363
:107180001081012282F3108802681368FF242134E1
:10719000A343136081F31088EFF31081012282F37F
:1071A0001088026893680D4C2340936081F3108827
:1071B000C16E01290BD1EFF31081012282F31088F7
:1071C000026813681024A343136081F310882022FF
:1071D0008C210A500021C166416710BDFEFFFFEF00
:1071E000F8B5044680682169E269084361690025B1
:1071F00011432268084311684B4B19400143116049
:1072000020684168032212039143E2681143416000
:10721000A169206A084321688A68444B1A400243E6
:107220008A602068C16A626A090909011143C16262
:107230003F492068884211D13E4840698007800F4D
:107240000FD0012806D0022802D003280BD103E07A
:10725000022109E0042107E0082105E036498842BF
:1072600001D1002100E010210120E369C003334A6D
:10727000334E344F834227D1002906D0022907D04C
:10728000042907D008293FD108E0FFF7ADFA03E051
:10729000104603E0FFF7BCFA00283AD0616A4900C3
:1072A000715AFEF7BDFF616840004A088018FEF77A
:1072B000B7FF01461039B94226D82249491C01407E
:1072C0000007400F084322E0002906D0022907D01A
:1072D000042907D0082917D108E0FFF785FA03E051
:1072E000104603E0FFF794FA002812D0616A4900C3
:1072F000715AFEF795FF61684A088018FEF790FF03
:1073000001461039B94201D9012502E080B2216855
:10731000C86020460121403041850185002060671A
:10732000A0672846F8BD0000F369FFCFFFF4FF1106
:107330000038014040100240004400400024F400A6
:1073400044750008EFFF0000FFB581B005460E460A
:10735000044680350A9F32E0781C30D0FFF712F9DE
:107360000499401AB84218D8002F16D02068016836
:10737000490724D5802E22D0402E20D0C169C94390
:1073800009070CD4082606622046FFF7F7FE2E6197
:1073900000202871012005B0F0BD0320FBE7C06983
:1073A000C04300050BD401202168C00208622046BA
:1073B000FFF7E4FE2020286100202871EDE7206817
:1073C000C1693046884305D0002103988142C3D06B
:1073D0000020E0E70121F8E78307FF22DB0E9A4057
:1073E0008907090E9940002808DB830809489B009B
:1073F0001B18186890430843186070470007000F77
:107400000838830804489B001B18D8699043084338
:10741000D861704700E400E000ED00E02249214817
:107420008860FFF7BDF862B6204D28690321084344
:107430002861FFF764FDFFF797FDFFF7FFFCFFF7FB
:1074400039FD1BA000F070F801220520D1020007D1
:10745000FFF792F81D4C012208212046FFF78CF817
:10746000012210212046FFF787F82869C00716D0AF
:1074700017A000F059F8FF252D3508212046FFF709
:1074800073F810212046FFF76FF815A000F04CF8B4
:107490002846FEF7A9FF18A000F046F8EDE71CA06B
:1074A000E7E700000060000800ED00E000E000E019
:1074B0004170706C69636174696F6E2069732073C9
:1074C0007461727465642E2E2E0D0A000004005043
:1074D0005379735469636B204F4B0D0A0000000011
:1074E0004265666F72652048616C2064656C6179E5
:1074F0002E2E2E0D0A000000616674657220486110
:107500006C2064656C61792E2E2E0D0A000000003F
:107510005379735469636B204E4F5420454E41425A
:107520004C4544210D0A000010B50446FEF736FE16
:1075300082B2642321460248FFF718FC10BD000008
:1075400010000020010002000400060008000A00EC
:107550000C0010002000400080000001000000002E
:10756000000000000000000000000000000000001B
:10757000000000000000000000000000010000000A
:1075800002000000030000000400000006000000EC
:1075900007000000080000000900000000000000D3
:1075A00000000000000000000000000001000000DA
:1075B000020000000300000004000000DC75000869
:1075C000000000201000000004610008EC750008B5
:1075D00010000020F80600002061000801000000F3
:0C75E00004000000000000000024F40083
:04000005080060C1CE
:00000001FF
