:020000040800F2
:10600000180C0020D56000088DB70008E3A6000832
:106010000000000000000000000000000000000080
:106020000000000000000000000000006BB9000844
:10603000000000000000000069B90008F1C000087D
:10604000E760000800000000E7600008E760000863
:10605000E760000845780008E7600008E76000088E
:106060000000000099770008E760000895770008B5
:106070007D6A0008E7600008E76000080000000093
:10608000E7600008000000000000000075C1000883
:1060900000000000E7600008E7600008E760000813
:1060A000E7600008E7600008E7600008D5CF000857
:1060B000E760000800000000000000000000000091
:1060C0000348854600F09CFC004800476DD000085E
:1060D000180C00200448804704480047FEE7FEE70C
:1060E000FEE7FEE7FEE7FEE765C10008C1600008C5
:1060F000D2B201E00270401C491EFBD27047002260
:10610000F6E710B513460A4604461946FFF7F0FFB6
:10611000204610BDF8B502464A40D40F42004B005D
:1061200052085B089A4202D20246084611464A00CB
:1061300023D0C30D4A00DDB2120EAD1A202D35DA80
:1061400049020126490AF6058A19002C00D052425C
:1061500020214F1B1146B9402A411018C20D9A4206
:1061600021D0002C17D0012D08DCDA05801AD20FBF
:106170008019D207DBB200F0AAFBF8BDDA05801A5D
:10618000012340001B06C01880185A428018CA0F0D
:106190001043490007E04908C2071143DA05801A95
:1061A00080194008801800F08AFBF8BD61000122C8
:1061B000511A001BF7E70122D2075140AAE701223A
:1061C000D2075040A6E7024670B54A40D30FDB071E
:1061D00040002DD04A002AD0010E140E00021202F7
:1061E0000919400A520A8418E50104465443000A7A
:1061F000120A2E045043A4194219200CC543AA18B0
:10620000120C0125AD03521C521912047F392404CB
:1062100000D0521C104301D44000491EC2B20C06EB
:10622000C0092018401C4008802A02D003E000204A
:1062300070BD40084000002900DA0020184370BDFE
:1062400070B502464A40D50F40004A00ED074008AD
:106250005208002814D0002A12D0C40DD30D4102D8
:106260000120C0055202490A520AE41A09181218FC
:106270007D34914201D3641C00E04900002C01DA16
:10628000002070BD0023914201D3891A03434008C6
:1062900049000028F7D100290AD0914202D10121FA
:1062A000C90705E0914201D2012101E00121C94362
:1062B000E005C018401900F002FB70BDF0B50746BC
:1062C0000846584087B0C00F049048000E46590059
:1062D00040084908BC1A884105D2384631461E4656
:1062E00017460B4602465800400810434CD0300D6C
:1062F000039040055900400D490D0590401A029049
:10630000402872DA18030121000B090508430190A7
:1063100004980092002805D001995242002088413B
:1063200000920190029840210A1A0199009800F009
:1063300092FA05460C466B4607CB00F0ADFAC01941
:106340007141039A0E0D0023D71756401A467A4022
:10635000164344D0049A002A2DD0029A012A039AA7
:1063600015DC1205C01A914101263605001C714149
:10637000D20F059ED2070093019202962A46234629
:1063800000F0EBFA07B0F0BD38463146FAE71605E3
:10639000224A0F46B218C01AB74101210905001C54
:1063A0004F4100187F41114618187941E20F104300
:1063B0006D19644113E0E2076D0815436408C207D4
:1063C0001443039A01261205C01A91413605001C98
:1063D0007141CE07400830434908C01851412A4650
:1063E000234600F0ADFACDE7FFE704980122400014
:1063F000C117121A00238B4104983146C417381A6A
:10640000A141EEE730B40124E407634030BC55E716
:1064100030B40124E407614030BC4FE70000E0FFE6
:10642000F0B51FB488B00B99099800244840099929
:10643000C00F490049080991C0070B990090490015
:1064400049080B9109990898A64608431CD00B9956
:106450000A98084318D0099801244000420D4800CA
:10646000410D099824050003000B204309900B9867
:106470000003000B20430B9050181C4940180022C9
:1064800001901446104605E0002001460DB0F0BD15
:10649000032801DA034600E003239C46C11A0AAE32
:1064A0000AE05F0008ADED5B4F00F75B7D4300271E
:1064B000AA187C41491C5B1E6145F2DD410004AB1A
:1064C0005A522104120C0A43240C401C0828DFDB1A
:1064D000019802900099704601910090059B049AE2
:1064E0000799069800F039FAD0E700000DFCFFFF8D
:1064F000F0B50C465C4085B0E40FE40703944C0013
:106500000026640859009446490802460296224330
:1065100021D062460A431ED06200570D4A000E0386
:106520002303550D012402462C492405781B1B0B1F
:10653000360B401823432643614600901C46501AF0
:10654000B44103D30098401C009002E092180098D8
:106550005B41002803DA0020014605B0F0BD0020B1
:10656000012109050746864611E064461D46141BB5
:10657000B54106D36546521BB341744607430C43ED
:10658000A646CD0740084908284392185B410546B6
:106590000D43EAD11046184313D0604619465040C7
:1065A0007140084306D06046101AB34106D201225A
:1065B000002306E000220123DB0702E00122D24390
:1065C0005310009874460105381C6141029C039DDC
:1065D0000019694100F0B4F9BFE70000FD030000B5
:1065E0000122D207002800DB101A002900DB511A13
:1065F000814201D801207047002070470122D20754
:10660000002800DB101A002900DB511A814201D258
:1066100001207047002070470122D207002800DBCC
:10662000101A002900DB511A814201D30120704762
:10663000002070470122D207002800DB101A002931
:1066400000DB511A814201D90120704700207047B8
:1066500010B5002904DB0C460121C9074042A141C5
:10666000002B04DB1C460123DB075242A341801AA6
:10667000994101D3012010BD002010BD10B50029A3
:1066800004DB0C460121C9074042A141002B04DB79
:106690001C460123DB075242A341101A8B4101D251
:1066A000012010BD002010BD10B5002904DB0C46F0
:1066B0000121C9074042A141002B04DB1C460123F4
:1066C000DB075242A341101A8B4101D3012010BDB8
:1066D000002010BD10B500229623114600F0F7F8F7
:1066E00010BD00000EB505490291002100910A4637
:1066F0000B46019100F031F903B000BD33040000F6
:10670000C20F410040020123400ADB05D207090EF7
:10671000C0187F2901DA00207047962903DC9623F0
:10672000591AC84001E096398840002AF4D0404206
:106730007047000070B5CD0F4A0009030123090B13
:106740001B0519430B4BED070024520D9A4201DA49
:10675000002070BD074B34339A4203DC9A1A00F0D4
:106760008AF802E00449511888402C43F1D0404295
:1067700070BD0000FF030000CDFBFFFF4A000903CE
:106780000123090B1B051943094B10B5520D9A4201
:1067900001DA002010BD064B34339A4203DC9A1A0A
:1067A00000F069F810BD03495118884010BD000081
:1067B000FF030000CDFBFFFFC20FD20740004008DF
:1067C0000BD0C10D0723DB01C91840020905400A9F
:1067D0001143C2084007114370470020014670472B
:1067E000CB0FDB07490010B5490802460A4307D022
:1067F0000A0D07240903E401090B121B002A01DC1E
:10680000002010BDC900440F0C43C100E018D205A0
:10681000801800F054F810BD70B50446002903D06C
:1068200000202022012310E0002801D00020C043D6
:10683000C046C0460DE02546D5408D4205D30D46E5
:106840009540641B1D46954040191546521E002D6B
:10685000F1DC214670BD10B5202A04DB0146203A48
:106860009140002010BD914020239C1A0346E34034
:106870001943904010BD10B5202A04DB0846203A89
:10688000D040002110BD0B46D340D0402024A21A96
:1068900091400843194610BD10B5202A06DBCB17DE
:1068A0000846203A1041C1170B4306E00B4613413E
:1068B000D0402024A21A91400843194610BD002957
:1068C00004DA401C490001D140084000704770B410
:1068D0000024050C05D11024000402D1002921D088
:1068E0001124050E01D100020834050F01D1000169
:1068F000241D850F01D18000A41C002801DB40006D
:10690000641C002908D020252E1B0D46F540A1400F
:1069100000D001212943084301061B1B000ADB1D8F
:1069200002D5002070BC7047DB05181880180029BC
:10693000F8DA401C4900F5D170BC400840007047AF
:1069400010B5002B08DA0024401C614192185B410D
:106950001A4301D14008400010BDF0B51FB482B009
:1069600005460C0003D0084607F0BCFE02E007F025
:10697000B9FE20300246009021462846FFF76BFF03
:10698000049B059A04460F4618431143084314D04C
:10699000184610431BD0009840210A1A1846059942
:1069A000FFF769FF05460E46009A05990498FFF720
:1069B00052FF084305D0012004E02046394607B0C5
:1069C000F0BD0020C11705430E432C433743009907
:1069D0000E986305401A7905E40A00220C43FD0A6B
:1069E0000A3002D500200146E9E701051019694186
:1069F0000C9C0D9D00196941FFF7A2FFDFE7000025
:106A0000064C0125064E05E0E36807CC2B430C3C01
:106A100098471034B442F7D3FFF756FBBCE70008A1
:106A2000DCE7000870B58C180578401C6B075B0F1D
:106A300001D10378401C2A1106D10278401C03E0E2
:106A400006780E70401C491C5B1EF9D12B0705D43B
:106A50000023521E0DD40B70491CFAE70378401C2A
:106A6000CB1A921C03E01D780D70491C5B1C521E52
:106A7000F9D5A142D8D3002070BD000080B561488F
:106A800001F0BCF880BDC046F0B583B0454E30780B
:106A9000012800D083E044490888401C0880002178
:106AA000424A434B5C5A15682C1910C2891C0A29AA
:106AB000F8D180B2D2286BD300243C4E3D4D01CE9C
:106AC000D221FFF7A9FE2853A41C0A2CF7D137487E
:106AD0000024046044608460C4600461364837491F
:106AE0000160288836490880688836490880A88867
:106AF00035490880EF8835490F802D89F9490D8087
:106B000001950290FFF7E6FD3149FFF703FB31499C
:106B1000FFF759FBFFF750FE2F4A304BFFF7CEFB34
:106B2000FFF75EFE2E4908602846FFF7D3FD2D498A
:106B3000FFF786FBFFF740FE2B4A2C4BFFF770FC5C
:106B40000125AA072A4BFFF76BFC2A4B2246FFF7C9
:106B5000B5FBFFF745FE284908603E463846FFF77B
:106B6000B9FD1649FFF72FFB24490860019800285A
:106B700001D12148046002980B280B4A01D818481B
:106B800004600B2E074E00D80C601D480570148061
:106B90001C480749052201F063FA0020307003B059
:106BA000F0BDC046A0010020D4010020BC0100209F
:106BB000A2010020AE01002014020020ACBB123C58
:106BC000BA020020840300205C030020E0010020C2
:106BD0000000E0C359FAD03C9A99999999992940B3
:106BE0005803002000F07F456666666666660A40C8
:106BF000333324400000F03FE4010020DC0100209A
:106C0000D6010020D4040020B0B5846AA26DA16D25
:106C100050231A4205D0C9061FD4216D496B8847FD
:106C2000B0BD012568020143A165206804F073F836
:106C3000002821D0A07E00281ED120680168090705
:106C40001AD504F064F800280BD0A06D2021014370
:106C5000A165E06D2843E0650EE0204600F0CDFF21
:106C6000B0BD206841680C2291434160FF20023092
:106C7000A16D8143481CA065204600F0B7FFB0BD60
:106C800080B5806A816D40220A438265C16D04220D
:106C90000A43C26500F0B1FF80BD80B5806A00F094
:106CA000ABFF80BD70B50446006804F01CF80646D2
:106CB000206804F01CF80025002E24D1002822D0E2
:106CC0002068816805220A40012A1ED103F0CCFF0A
:106CD00020680321016001F0E9FC06462068806815
:106CE000C00710D001F0E2FC801B0328F6D3206817
:106CF0008068C007F2D0A06D10210143A165E06D4E
:106D000001252843E065284670BDA06D1021014390
:106D1000A165E06D01252843E065284670BD0000AF
:106D200070B582B0054600240194006803F0DFFFCF
:106D3000002816D128688168224A114208D0A86D1F
:106D400010210143A965E86D01242043E86508E0AE
:106D500003F096FF03F0BAFF000205D4687E012815
:106D60000FD1204602B070BD174800681749FFF7E1
:106D700053FD401C019001980028EFD00198401E5F
:106D8000F8E701F093FC064628680168C907E8D1D6
:106D900003F0ADFF002802D1286803F071FF01F075
:106DA00085FC801B0328EFD328680068C007EBD15F
:106DB000A86D10210143A965E86D01242043E86511
:106DC000CFE7C0461700008058000020400D0300A8
:106DD000F0B585B0414842490D68424F3C88A54214
:106DE0000CD80178002909D13F4900220A603F49A7
:106DF00006230B703E490A600121017029460A31C1
:106E0000A1420CD80178002909D0374900220A6034
:106E1000364906230B7036490A6001210170334E52
:106E20003178032949D10178002946D031490A88AF
:106E300031499A2A01D3002201E00A68521C0A60F3
:106E40000A2A0DD30122027000220A600621317045
:106E500025490A6026490A6028490A7028490A60BB
:106E60002A460D3A2749A24201D8002201E00A68C9
:106E7000521C0A60322A08D30522327000220A60AE
:106E800019490A601A490A6002701F498A1E1F497F
:106E90000B681F49934201DC002201E00A68521C82
:106EA0000A60462A09D30622327000220A600E497F
:106EB0000A600F490A60012101703078062800D964
:106EC000E2E1400078448088400087442300670066
:106ED000AF00E2000C011F013601C046580200203D
:106EE00060020020F4010020280300207502002029
:106EF00024030020E0010020500200207402002042
:106F0000700200205C0200203A02000020000020F5
:106F100054020020E54800680490FFF74DFC064647
:106F20000F46E34804682046FFF746FC012203921F
:106F3000930700252A46FFF7C1F932463B46FFF783
:106F4000B3FB002800D08AE2F9490868401C0860B9
:106F5000C82800D298E1F7492046FFF76BFB0028CC
:106F600000D13FE22046049E3146FFF769F9F24C1A
:106F70002146FFF728F901462046FFF71CF9FFF7E5
:106F8000BFFBEE49086002461E3AED4B1D3B9A429C
:106F900000D364E20860EB490E6049E2EA4E3068D3
:106FA000002800D14BE1E94F3868401C38600A28BE
:106FB00000D269E1E6480088E64D2A885043E64958
:106FC0000860E6490B68834204D80860E44800681A
:106FD000E44B1860E4480368934200D80260E34B36
:106FE0001B6893421AD800223A600223E04D2B70AE
:106FF000E04B1A60E04B1A60E04B01251D60E04B4E
:107000001D70E04B1D60D34D0A60DF490A60DF4907
:107010000A70D4490B680A60DD490B60D0490A68E0
:107020001F2A00DA46E1501E086062E1D149086873
:10703000401C0860322800D226E1D44801260670A0
:10704000C3480088D0490860C24909884843C24AF9
:107050001060D04DD04802680020A24200D808E25B
:107060002A688A42BB4C00D804E2CC480168491C1B
:1070700001600B2900D2FFE1C9480221324601F02C
:107080000CFB052000073103324601F006FB0B2004
:10709000F0E1B6480068C34909680B18AD4A128888
:1070A000934200D3AAE0C04801210160BF480021FB
:1070B0000160AB480168491C0160A81DA04203D2D1
:1070C000A7480168491C0160B8480460A4480168E9
:1070D0001D2901DC1E210160026899498A4200DCF9
:1070E0009EE201609CE2B2480068002800D0A2E065
:1070F000B0480121017000209D4908708C4908604A
:10710000A1490860A149087005B0F0BD9E499F489B
:107110000278002A00D189E00A68002A00D185E0BF
:107120008B4B1B8814465A3C9C42914D00D88EE0F4
:107130008B4A13685B1C13601BE29F48017800298F
:1071400003D09E4900220A60027099480068002816
:1071500071D1754800680290FFF72EFB04900391EF
:1071600072480068FFF728FB0126B30700273A465C
:10717000FFF7A4F8049A039BFFF796FA00286FD153
:10718000049F0196083DA5427ED98D480068FFF70F
:1071900013FB02460B468B488B49FFF733F93A46FF
:1071A000039BFFF7A5F90025884E2A463346FFF7D3
:1071B00037F92A463346FFF781F8FFF7BBFA5F49F4
:1071C000086002461E3A5E4B1D3B9A4200D32BE2FA
:1071D00008605C49029A0A606149086004F0F0FBAB
:1071E000614805605D4805605E4805605648019F3E
:1071F0000760644807606048056020E2A54200D847
:107200005BE7401A904200D857E768480068A04200
:1072100003D9654801684942016051480168624AE2
:107220001268012A00D146E7491E45E7604A126804
:10723000002A4F4C2AD004F0E1FB05B0F0BD4849CC
:107240000B68484802689A422BD9581C2CE05A32E5
:107250009A4200D373E1424A13685B1E136088E1CF
:107260005B4806705B4806705B48077040480770D3
:10727000364807603F4807604E4806702C48076054
:10728000414807604148077005B0F0BD494A0123F5
:10729000137000222270264B1A600A60027005B03B
:1072A000F0BD00D3A2E1581E0860B9E158030020E8
:1072B000E4010020494909680068884216D844481A
:1072C000012505704348057043480021017032488C
:1072D0000068A0420AD9324802212A4601F0DDF9AD
:1072E0000520000729032A4601F0D7F90020306065
:1072F000184D288839490968814201D3012030603E
:10730000374C2068401C20607D20C00001F068F8E8
:1073100020683C2802D300202060306005F062FE27
:107320000020386005B0F0BD58030020E4010020C3
:10733000480300200000C04000C015442400002085
:107340003A020000900300203000002028030020B3
:107350005C030020E001002064030020680300209B
:1073600020000020A80200201002002018020020A7
:1073700075020020240300206C0300203800002048
:10738000400300205C0000208C0300202303002029
:107390003C0300203C000020440000203403002077
:1073A00000140050080200200400002040020020C9
:1073B0009C020020B3020020740200207002002012
:1073C000640200209A9999999999B9BF00B88240AE
:1073D00011030020180300202003002014030020C4
:1073E00088030020D2480068FFF7E6F902460B4602
:1073F000D048D149FFF706F832463B46FFF778F808
:107400000025CE4C2A462346FFF70AF82A46234693
:10741000FEF754FFFFF78EF9C949086002461E3A8D
:10742000BA4B1D3B9A421AD20860C649049A0A60B8
:10743000B749086004F0C4FAC3480560C348056052
:10744000C3480560C34803990160C3480160C3484D
:107450000560A9480170A7480560A8480560B348C1
:107460000570B1480560AE480570AE48056005B0CE
:10747000F0BDA34CC24908603988C34802680020A7
:107480008A421AD221882A6814328A42BB4F15D206
:10749000BE480168491C01600B2911D3B94802217B
:1074A0000024224601F0F9F80520000731032246A6
:1074B000934C01F0F2F80B2000E0B04FB3490860A4
:1074C0003868A2490A68824204D808609048006877
:1074D0009F4A1060A7480268A74803689D1824883F
:1074E0008A48A5420ED2A14A16709B4A0023136017
:1074F0000B6097490B6086490A68521C9C4B1A60C6
:107500000A60CAE0D21AA24200D2C6E0974A1378B3
:10751000002B00D19EE07E490B688F4C2568002D22
:1075200000D1A0E0421E934200DBA6E0904A126820
:10753000521C934200D9A0E05A1C0A60ADE06D4B8A
:1075400000221A6002232B706C4B1A60834B1A6066
:10755000854B01241C60854B1C707F4B1C607B4B52
:107560001A607B4B1A600A600270694A1268804B8D
:107570001A60674A13681D2B1ADC02232B701E2425
:1075800014605C4D00232B605C4D2B60734D2B60B1
:10759000754D01262E60764D2C60744C26706E4C15
:1075A0002660554D694C2360694C23600B60037065
:1075B0001468564B9C4233DD02242C7013604D4CF2
:1075C000002222604D4C2260644C2260664C0125F2
:1075D0002560674C2360654B1D705F4B1D605B4BE6
:1075E0001A605B4B1A600A60027019E0414B00217F
:1075F00019600223404C2370404B1960574B1960AF
:10760000594B01241C605A4B1A60584A1470524A54
:1076100014604E4A116001604348016043480170A4
:1076200005F0E0FC05B0F0BD3A48019F07703A480C
:1076300007703A4805703C4805603C4805702E4983
:1076400047480560474807600320087029480560DF
:107650002A480BE72E4C25683D4B1F68AF420FD9D7
:10766000691C216018E01F2B04DB414C2468641E58
:10767000A3423CD2002111700FE0002121600CE0F8
:1076800002D2691E216007E01670394A1760324A3B
:10769000166000220A601A60384F1D490A681D2AC8
:1076A00001DC1E220A600A68824200DD086005F0E3
:1076B00099FC38682949086012480178002903D1EB
:1076C0000670114900220A600F490A68304B9A423D
:1076D0000A4B08D300220A60027004200649087091
:1076E000044802601A600020186005B0F0BD5A1E00
:1076F0000A60D2E72803002075020020240300203E
:10770000E001002074020020700200203A02000014
:107710002000002011030020180300202003002077
:10772000B3020020480300208C0300202303002024
:10773000640200209A9999999999B9BF00B882403A
:107740002400002090030020100200206803002085
:10775000A8020020300000205C0000206C03002004
:1077600040020020040000203800002040030020D8
:107770003C030020180200200802002064030020BF
:107780003403002000140050400000203803002083
:10779000090700007047000080B5024800F026FD90
:1077A00080BDC0463805002010B504460948216C4C
:1077B00009188030032291436164A064207808385E
:1077C0001421FFF729F81F21014001208840E064BF
:1077D00010BDC0460008024010B5084942683F236A
:1077E00013405A1E0323134001249C409200521858
:1077F000403102654165846510BDC0460009024004
:1078000070B5846CC56C6560046D002C02D0446D4D
:10781000856D6560046C1C2525400124AC40084D35
:107820002E6826432E600468636080681028134623
:1078300000D00B46A360102800D01146E16070BD57
:107840000400024080B5012000F0DEFD80BDEFF3B2
:10785000108072B6FEE70000F0B587B00446002144
:1078600006915420205C012801D1022564E0049196
:1078700026465436012535702046FFF713FA074691
:10788000206803F038FAA16D002806D010200143CB
:107890003D46049F3770A1654EE00295039601971F
:1078A000812040008143881CA0652068C168C268AF
:1078B0003E4B1340C3603E48084000903D4E049F3D
:1078C0003D46206803F07AFA206803F009FA0028A0
:1078D00006D00698401C06900698B042F4D321E0EA
:1078E000206803F0E3F9C7196D1C082DE9D1206861
:1078F00003F0CCF92068FD0803F0DDF900281ED163
:1079000003F0DEF9800C072819D3C01E0121814045
:107910000591059840080590059800280FD0059816
:10792000401EF8E7002003990870A06D1021014364
:1079300002208143A165029D284607B0F0BD206862
:10794000294603F013FA206803F094F900F0AEFE24
:107950000290206803F0CFF90028019D049F039E48
:107960000FD12068C168009A1143C160A06D012148
:107970000143022081438DE7206803F0BCF9002811
:10798000EFD000F093FE0299401A0328F4D3206848
:1079900003F0B1F90028EFD0A06D10210143A165DB
:1079A000E06D01252843E065C6E7C046FC7FFFFF88
:1079B0000380000000F20200704770477047704774
:1079C000F0B587B00C460546002106915420285C8E
:1079D000012801D102260FE005912F4654370126D8
:1079E0003E70286803F093F9002808D0A86D202184
:1079F0000143A96505993970304607B0F0BD286983
:107A0000616802291DD1042108437249884203D1CB
:107A10002168286803F08EF9206800260028E9D53F
:107A200003F054F921686D4A914200D190E06C4A0C
:107A3000914200D18FE0684A9142DBD10121C90512
:107A40008BE004263043634A90422ED12168286897
:107A500003F068F9A2682168286803F08FF92068AC
:107A600000260028C6D5012503F030F921685A4ABE
:107A700091425FD1EA05034613405BD1104303F006
:107A800089F9584800685849FEF7C6FE0C21414361
:107A90000C31069106980028ACD005990698401E36
:107AA000069006980028F9D1A5E71F2008400F236B
:107AB000029383402A6E9A430492226853030392EE
:107AC00043D00193D307059B5DD1039A930755D407
:107AD000530755D4130755D4D306334653D4039ACA
:107AE00093065ED453065ED413065ED4039AD30580
:107AF0005DD4039A93055CD4039A53055BD4039A2F
:107B000013055AD4039AD30459D4039A930458D42E
:107B1000039A530457D4039A1304029B33D4039A51
:107B2000D30352D4039A930351D4019AD617122344
:107B3000334028E0294A914213D12A0603461340D4
:107B40000FD1104303F026F954E75300DB0E1AE07F
:107B50000121090601E001218905884303F01AF992
:107B600048E71F4A914200D044E7A90502460A406F
:107B700000D03FE7084303F00DF93BE7012302E0A3
:107B8000022300E003238340049803432B66880804
:107B9000EA69824200D85DE72868039A03F0D4F8C6
:107BA00058E70523EFE70623EDE70723EBE7082374
:107BB000E9E70923E7E70A23E5E70B23E3E70C23DB
:107BC000E1E70D23DFE70E23DDE71023DBE71123D9
:107BD000D9E7C04604000080001000B0004000B8A3
:107BE000002000B458000020400D0300014801218E
:107BF00001707047A001002070477047F0B581B058
:107C000004460068016845680D40A8070DD5A06DC1
:107C1000C00604D40120C002A16D0143A165204625
:107C2000FFF7CBFE2068022101606807012677027A
:107C300000280DD428070BD428063AD4E80544D4EC
:107C40003D4250D1E80659D4A8046FD401B0F0BD2C
:107C5000A06DC00602D4A06D3843A065206803F073
:107C60005AF800281DD0A07E00281AD1206801688B
:107C7000090716D503F04BF8002807D0A06D202186
:107C80000143A165E06D3043E0650AE0206841688A
:107C90000C2291434160FF200230A16D8143481CBA
:107CA000A0652046FFF7A2FF20680C21016028068E
:107CB000C4D53004A16D0143A165204600F052F9FE
:107CC000206880210160E805BAD50097370270046A
:107CD000A16D0143A1652046FFF770FE2068076093
:107CE000009F3D42AED0B004A16D0143A165204686
:107CF000FFF765FE20680760E806A5D5206B002821
:107D000004D0206802F0FFFF00280AD0B002A16D65
:107D10000143A165E06D02210143E1652046FFF7C3
:107D20006CFF206810210160A8048FD575032046E0
:107D3000FFF742FE2068056001B0F0BDF0B589B0E4
:107D40000024089400282BD00546806D002807D118
:107D50002E465436284600F007F900203070E865BA
:107D6000286802F0CCFF00281CD0286802F0C7FF6A
:107D7000002807D1A86D10210143A965E86D0124F1
:107D80002043E8652F465837286802F0C0FFA96DE8
:107D9000102211400143A86D15D01043012479E051
:107DA000012478E0286802F077FF68480068684995
:107DB000FEF732FD4000801C089008980028D4D0BF
:107DC0000898401EF8E706920F210591C9430791D4
:107DD000F3390840801CA865286802F088FF002855
:107DE00016D06A6B28680021059102F0DDFFAA6BAE
:107DF00028685B4902F0D8FF28690126710588428E
:107E000022D000282DD12868816A079A114326E0E4
:107E10002A462032286B411E88410303A868297E28
:107E200089030143687EC6030E43A87E0290400387
:107E30003043E968014319430126F0072B69002B01
:107E400003902BDA83432AE02868816AE969890074
:107E50001C311C220A40079B9340296E194328308D
:107E60000160286802F038FF696B884207D10598E5
:107E7000E865A96D01200843022188430AE0A86D46
:107E80000699084302218843A865E86D30435C35B4
:107E90002F4634463860204609B0F0BD73051943BB
:107EA000107B43000B43107801280CD10298002866
:107EB00007D0A86D20210143A965E86D3043E8652E
:107EC00001E030040343686A0028049605D00721C6
:107ED000890108401843AB6A03432968C8681D4EEE
:107EE00006401E43CE60032080076E683346029032
:107EF0000340E86C127F0343012A0CD1286C6A6CA2
:107F00000092AA6C01921843009A1043019A104300
:107F1000049A1043034608690F4A02401A430A6153
:107F20000398864200D15CE70298864200D158E768
:107F300004988007864200D153E7059880040640E4
:107F400006490A688243901908604AE758000020F1
:107F5000400D03000102DEFF02FCFF1F0827014065
:107F600004FFFF0770470000F0B58FB000260E96A3
:107F70000D960C960B960A96099608960796069605
:107F800005960496026831498A4201D00FB0F0BDCF
:107F900002900127F8070890B803049004A800F0A5
:107FA0005FFE002801D0FFF752FC39052848C2685F
:107FB0000A43C260C2680A400392039901683943C8
:107FC000016001683940039103990168022211435D
:107FD000016000681040039003980C9603240B94F2
:107FE0000A940520019000070AAD294600F084FAA2
:107FF0000C960B9407200A901648294600F07CFA4C
:108000003803154D28622020B9023A028023134C10
:108010002C60019C6C60AE60EE602B616A61A961AE
:10802000E861284600F03EF9002801D0FFF70FFC78
:108030000298A86205650C24002120460A4600F03B
:10804000E5FD204600F0DEFD0FB0F0BD002401404C
:10805000341002400004005038050020080002409F
:10806000F0B583B015460E460446006802F04FFE98
:10807000022700283FD102955420205C01283AD0E5
:108080002546543501272F702068C168C9070AD1D9
:1080900002F02DFE002802D0206802F0E5FD2068E5
:1080A000C1683943C16001972046FEF739FE074693
:1080B000002820D1A06D1149014001980002081844
:1080C000A0650020E06521681C220A602870206DF0
:1080D0000B4A0C4B0C4DC562036342634A68102384
:1080E00013434B6040313246029B00F035F907469E
:1080F000206802F035FE384603B0F0BDFEF0FFFF09
:10810000816C00089B6C0008096C000870B50028A1
:108110002AD0014624314A78022A27D104682268ED
:108120000E239A432260426C15682F4B1D40156048
:108130002568012295432560046C1C2525401446C2
:10814000AC40574D2E6826432E60846CC56C65602C
:10815000046D002C05D025681D402560436D806DA1
:1081600058604A70002004E0012070BD0422C26300
:10817000012000220A7070BD70B52521415C0229E2
:108180002DD10146243103681A680E24A2431A60D7
:108190001C68012294431C60446C2568124B1D40EE
:1081A0002560046C1C2525401446AC403C4D2E68CF
:1081B00026432E60846CC56C6560046D002C05D070
:1081C00025681D402560436D846D5C6000240C7043
:1081D0004A70816B002900D08847204670BD042179
:1081E000C1630124204670BDFFFEFFFFF0B581B0E2
:1081F000016C1C240C402A490A1F15680268166885
:10820000730714D504210F46A7403B462B400ED0E0
:1082100013689B0602D413688B431360204A1168CD
:1082200039431160016B00291CD101B0F0BD034638
:108230002433B10719D50227A7403946294014D065
:108240001168890605D411680A24A143116001212F
:10825000597000211970124A116839431160C16ABE
:108260000029E2D0884701B0F0BD3107DDD50821F3
:10827000A1402940D9D011680E25A94311600121E0
:108280000A46A240064D2C6814432C60C1630022AC
:108290001A705970416B0029C7D0884701B0F0BDF2
:1082A00004000240F0B583B0002843D004460146E4
:1082B0002431022002914870266830682449014028
:1082C0003160244830181421FEF7A6FA800020649B
:1082D000A16827460C378DCFE5690095256A019581
:1082E0000843104318433843009908430199084351
:1082F0003168014331602046FFF756FA0126B0038A
:10830000A168814201D10020606060683F21014086
:10831000626C1160A16CE26C4A60401E03280CD8AC
:108320002046FFF759FA206D00210160606DA16DB4
:10833000416006E0012003B0F0BD002020656065CB
:10834000A0650020E063029908704E7003B0F0BD94
:108350000F80FFFFF8FFFDBFF0B581B00546242078
:10836000285C012801D1022437E02846243001246A
:1083700004704678012E12D1022444700024EC636C
:10838000286807680126B74307602846FFF738FAD0
:10839000286801682A6B002A06D00E2209E0002115
:1083A00001708020E86318E00422914301600268B4
:1083B0000A21114301603002696C0A68D20302D5B8
:1083C0000A6802430A60296D002902D00A68024344
:1083D0000A602868016831430160204601B0F0BDA1
:1083E000B0B5044600F062F90546601C02D00448AE
:1083F0000078041900F05AF9401BA042FAD3B0BD2E
:108400009801002070470000B0B50446074D286869
:10841000204203D02C60204600F00AF86868204211
:1084200003D06C602046FFF7EDFFB0BD0C18024092
:1084300010B526480078012842D123480068012859
:108440003ED12048006800283AD121480068002821
:1084500017D02048006801282FD81F4804682046FC
:10846000FEF7AAF91D4A1E4BFEF708F900280DD1A8
:108470001C480068022809D219200001C8300121D7
:1084800014E01A4801680A20484311E016492046C2
:10849000FEF7B4F8002807D112480068032803D279
:1084A00019200001022101E0642003210D4A11601E
:1084B0000F4908600F4909684863064814210160A4
:1084C00010BDC0467403002014000020F0020020FC
:1084D00054000020D0040020E40100206666666697
:1084E00066662A40FC070020000048418C020020FC
:1084F000DC02002080060020F0B588B00B46096839
:10850000002900D1B7E002465C48824201D0052034
:1085100000E0032000900124002005460690074655
:10852000019407920FE03843039F56490860196889
:108530000846E040069E361D0696AD1C0837641CB2
:10854000002800D197E0661E01980596B0400140D2
:108550000291ECD0039719465B6803261F460496E8
:1085600037407E1E012E13D8049EAE40079A9268B3
:10857000B243CE68AE401643079A9660DA06D20F31
:10858000059B9A40079B5B6883431343079A53609C
:10859000032F0B46049E1ED03046A840079AD2688F
:1085A00082439868A8401043079AD060022F12D1E6
:1085B0001C20069A10400F268640059AD208920089
:1085C000079B9A18136AB3430E6986401E430B46F5
:1085D0001662049E079A3046A84011688143586885
:1085E00082033040A840084307990860900F079A1B
:1085F000039F9CD0182139400F208840059FB74326
:108600001F4EF619376E87436036052000078242F9
:108610000AD01D48824205D01C488242009804D1ED
:10862000022002E0012000E0002088403843306052
:10863000134800685E68F10202D5029F384301E0EA
:10864000029FB8430E4908604868B10201D538431B
:1086500000E0B8430A4948600A484068B10301D5C0
:10866000384300E0B843074948600868F10300D583
:1086700059E7B84358E708B0F0BDC046000C0050B9
:10868000001802408018024000040050000800500A
:1086900000690840411E88417047002A02D0182214
:1086A00081507047282281507047000001480068BF
:1086B0007047C04614080020B0B502464120135C44
:1086C0000220202B19D1134640331C78012C14D0E2
:1086D00024205870106802680124A243026022031B
:1086E00005689543056002680A43026001682143FA
:1086F00001600020187020215970B0BDB0B502464D
:108700004120135C0220202B19D1134640331C78E2
:10871000012C14D024205870106802680124A24350
:1087200002600F2212020568954309022943016085
:108730000168214301600020187020215970B0BDEC
:10874000F0B581B0002821D0044605464035687850
:10875000002804D100202870204600F0B9F9242018
:1087600068700120C24321680B6813400B600F2220
:108770001206636893430B618B681B4A13408B603E
:10878000E368012B05D02126B60203E0012001B0E9
:10879000F0BDC603A76837438F609B1E5E425E41F3
:1087A000F302C6024F68B743FB184B604B680F4E8D
:1087B0001E434E60CB681340CB602269636913434C
:1087C000A26912021A43CA60E269236A13430B606A
:1087D0000A6802430A6000206064202169702063F7
:1087E000A87001B0F0BDC046FF7FFFFF008000020F
:1087F000F0B589B005464120285C022420283DD1EF
:108800000E9F002F37D00F98002834D016460890BE
:108810002A4640321078012830D004930791012471
:1088200014700592FFF742FF06900090E1031923B0
:108830002846224602F07AF800281FD1109A2220FA
:108840000599487040208870002068646F62174660
:1088500003906863089868850092069801902846FE
:1088600007993246049B01F0DDFF002809D00598E6
:108870000399017002E0012460026864204609B097
:10888000F0BD0897012426066306688D000A344867
:108890000496039306D0FF222A8500902846079964
:1088A000334605E0698D29850090CAB228460799AC
:1088B00002F024F8069E089B0DE0688D288500963E
:1088C000C2B228460799039B02F018F8069E089B3F
:1088D000688D00282ED000960421002728463A46AD
:1088E00002F024F80028C9D1686A2968496A017031
:1088F000688D401E6885686A401C6862288D411E2C
:108900002985688D0904089BE2D10028E0D00096F3
:10891000802100262846324602F008F80028ADD112
:10892000688D000AC9D0FF222A850096284607993B
:10893000049BC9E728461946324602F047F800284A
:1089400005999BD128680C462021C16142685F4B84
:108950001340436061702770A7703C468EE7C046A5
:1089600000240080F0B589B005464120285C02242F
:1089700020283CD10E9F002F36D00F98002833D0EE
:10898000164608902A464032107801282FD00493CA
:108990000791012414700692FFF788FE059000905D
:1089A000E10319232846224601F0C0FF00281ED10A
:1089B000109A212006994870402088700020686431
:1089C0006F62074668630898688508920092059868
:1089D0000190284607993246049B01F057FF002872
:1089E00008D00698077002E00124600268642046FF
:1089F00009B0F0BD0297059F012426066306688D25
:108A0000000A0496039307D0FF222A8500200090D5
:108A100028460799334606E0688D2885029900911B
:108A2000C2B22846079901F069FF3E46089B0DE057
:108A3000688D28850096C2B228460799039B01F0ED
:108A40005DFF3E46089B688D00282BD028461946BE
:108A5000324601F0F0FF0028C9D12868696A0A7817
:108A60008262688D401E6885481C6862288D411EA0
:108A70002985688D0904089BE5D10028E3D000967C
:108A8000802100262846324601F050FF0028AED152
:108A9000688D000ACCD0FF222A85009628460799C7
:108AA000049BCCE728461946324601F08FFF002888
:108AB000069F9CD128682021C1614268034B134066
:108AC00043607970029C3C70BC7090E700E800FE47
:108AD000B0B58CB000210B910A91099108910791D2
:108AE0000691059104910391029101910068184A41
:108AF000904201D00CB0B0BD03912020019001A89C
:108B000000F0AEF8002801D0FEF7A1FE012509957E
:108B1000104C2068284320602068284000900620E0
:108B20000B9002200A901220089003204002079028
:108B300000980520000707A9FFF7DEFC6805A1687B
:108B40000143A160A1680140009100980CB0B0BD44
:108B500000540040341002401E48007802490A6860
:108B6000101808607047C04614080020B0B50124F2
:108B70002002F4490A6802430A600025284600F0F2
:108B800009F8002801D02046B0BD00F025F82C4699
:108B90002046B0BDB0B505460E4801780124002935
:108BA00016D07D20C000FDF737FE0146EB48006877
:108BB000FDF732FE00F044FC032D09D8002807D150
:108BC0000024E0432946224600F020F8E0480560F2
:108BD0002046B0BD9801002082B0094841680122BA
:108BE00011434160416811400191019911070268E8
:108BF0000A430260006808400090009802B0704785
:108C00003C10024080B504F0F7F980BD80B504F057
:108C1000FFF980BDF0B581B0032569026E4E326860
:108C20008A430243326001214A020024904212D159
:108C3000CA480268706940050DD58F02062050436E
:108C40000649FDF7E9FD801C401E03D071693942D9
:108C5000FAD100E02C46204601B0F0BD40420F00A2
:108C6000F0B587B00646807880075A4F01D40025BA
:108C70003EE0059601221107203F38680840049025
:108C800006D138680843386038680840069006986E
:108C900002970391019216024F4C206830432060E6
:108CA000FFF704FD05462768374006D1FFF7FEFCB5
:108CB000401B0328F7D3032500E00025059E002F65
:108CC00001D1444F0CE003242102424F3868084090
:108CD00055D07269904256D1C00761D1002D70D035
:108CE0000498002804D1029A106803998843106000
:108CF0003068C10707D0394608390A6803239A4308
:108D0000736813430B60810608D5032109033A46B3
:108D1000083A13688B43B16819431160012142047A
:108D200017D53A46083A13682D4C23400C4629467D
:108D30003546366933431360294A521C96422E4603
:108D40000D46214605D10A043B46503B1C6814439E
:108D50001C60000510D58803032292033B46083BA4
:108D60001C689443F26814431C60824204D10804D6
:108D7000503F396801433960284607B0F0BD0020F4
:108D8000C007ABD00CE03868019A12043B6813436B
:108D90003B603B6893433B6088433860C0079DD08D
:108DA0000194FFF783FC06460C4C3868800705D415
:108DB000FFF77CFC801BA042F7D3019D059E002D90
:108DC0008ED10320000239688143706908433860FE
:108DD000002585E75C100240007000408913000008
:108DE000FFFFFF3FF0B583B00D460121002800D101
:108DF000A5E0019102905348006807242040A84252
:108E000014D250490868A043284308604E4EFFF72B
:108E10004DFC07464B4800682040A84206D0FFF7AB
:108E200045FCC01BB042F5D9032188E0029B1868BD
:108E30008107734E0CD5410703D5210332680A43DD
:108E400032600F21090232688A4399681143316008
:108E5000C00719D13B4800682040A84229D93949A8
:108E60000868A04328430860374FFFF71FFC0646F9
:108E7000344800682040A8421BD0FFF717FC801B35
:108E8000B842F5D903215AE0586803282FD8810049
:108E900001A251585A4A8F46A98E0008F58E000843
:108EA000FF8E0008098F0008114608390968490536
:108EB0002CE0029A10784007514D05D5200329680F
:108EC0008143D0680843286000F05CF8296889096C
:108ED0003C220A401D4989581F220A40D0401F49A0
:108EE00008601B480068FFF755FE014627E0444A2A
:108EF000516D0AE0114608390968890306E01146F8
:108F000008390968890101E0916D8907019916D531
:108F10001168A143014311600B4FFFF7C7FB0646E1
:108F2000374800683821014002984068C0008142FB
:108F300090D0FFF7BBFB801BB842F1D90321084654
:108F400003B0F0BD002002408813000030E70008A5
:108F50009C010020014800687047C046580000206E
:108F600010B5FFF7F7FF044601F032FF000B800059
:108F7000034908581F210140CC40204610BDC0467F
:108F800070E7000810B51E4C20688006400F06D020
:108F9000226838210A401B48082A07D110BD083C26
:108FA00020688004410F1848C84010BD22680A405C
:108FB000102A15D1616803220A40032A00D0124802
:108FC00061684906490F491CFDF726FC61684904A0
:108FD000490E48436168490F491CFDF71DFC10BD4F
:108FE00020680840202802D10120C00310BD20685D
:108FF0000840182801D0002010BD7D20000210BDBF
:109000000810024000127A000024F400F0B587B086
:109010000127002800D1F8E1049705900078C007E7
:10902000FD4E2CD10598007880074CD40598007827
:1090300000070DD5B06838210140182900D0A6E0FE
:10904000306E800704D505988069002800D1E1E1E1
:1090500005980078400700D45FE1B06838210140EE
:10906000202900D0AAE0F06D800700D452E10598D5
:109070008068002800D04DE1002001274BE1B06856
:10908000F16803273A468A433821014010204840BE
:10909000821850425041082945D0002843D10598F4
:1090A0004268052000048242039200D1B8E001200A
:1090B00001048A4200D1B9E032688A4332608104F7
:1090C00030688843B4E0B16838200840102141403E
:1090D000F26803273A4002235340CA1851425141D3
:1090E00000282BD0002929D1306801218C02059B52
:1090F000DA68002A00D1B8E00722D20290431A6948
:10910000024332600802316801433160FFF7CEFA52
:1091100005463068204200D0B7E0FFF7C7FA401B91
:109120000228F6D971E13068800300D47AE7059807
:109130004068002800D075E7049F66E13168490562
:10914000059B03D5D968002900D1B9E07F21090228
:1091500072688A43596909021143716000280DD170
:109160000720C002316881431869084330603068C5
:109170008004400FAB49C140AB480160AB48006878
:10918000FFF708FD002800D150E7049F3DE1306E55
:1091900005998969002900D181E0012108433066E1
:1091A000FFF784FA0546306E800700D550E7FFF7D9
:1091B0007DFA401B03270228F5D926E10120039000
:1091C0000107F06B0840029006D1F06B0843F06392
:1091D000F06B0840069006980191954C2068C005F8
:1091E00010D403980702206838432060FFF75EFA26
:1091F00005462068384205D1FFF758FA401B02287F
:10920000F7D975E005988468052C5BD0012C5DD0FA
:10921000F06D03998843F065F06D0421884358E0B0
:109220000120810432680A43326001043068084337
:10923000306001204404FFF739FA054603980028FE
:109240000FD03068204200D0ECE6FFF72FFA401B29
:109250006428F6D9D9E0FFF729FA401B642800D921
:10926000D3E030682042F6D1DCE609028843306062
:10927000FFF71CFA05463068204200D1D6E6FFF71A
:1092800015FA401B0228F6D9BFE07F200002716862
:10929000814305984069000208437060C6E60121D9
:1092A00088433066FFF702FA0546306E800700D427
:1092B000CEE6FFF7FBF9401B03270228F5D9A4E00F
:1092C000049FA2E0F06D04210143F165F06D039964
:1092D0000843F065574FFFF7E9F90546002C0FD01A
:1092E000F06D80070FD4FFF7E1F9401BB842F7D9C2
:1092F000002003270FE0FFF7D9F9401BB842F7D849
:10930000F06D8007F7D40298002803D1F06B019923
:109310008843F0630120002877D00598C469002CA9
:1093200072D0B06838210140102903D1012C18D126
:10933000049F6AE001273906306804918843306051
:10934000FFF7B4F90546022C2CD103977C06306850
:10935000204232D0FFF7AAF9401B03270228F6D992
:1093600053E0F06803210140059B1A6A91424FD1F6
:10937000702101405A6A914250D17F210902014077
:109380009A6A120291424BD11F2149040140DA6AC4
:109390009142049F39D1072149070840196B88423F
:1093A00033D131E07C063068204229D0FFF77EF9C6
:1093B000401B03270228F6D927E0F0681F49014027
:1093C000059F2037ADCF08431043190201432943BD
:1093D0003943F1603068049908433060039800070E
:1093E000F1680143F160FFF761F9054630682042FA
:1093F0000AD1FFF75BF9401B03270228F6D904E0E6
:10940000F0680D490140F1600027F8B207B0F0BDE7
:10941000049FFAE7049FF8E700100240049FF4E776
:10942000049FF2E70024F400580000209C01002073
:109430000070004088130000FCFFFEEF8C80C11F0D
:1094400080B502F041FE80BD704770477047000054
:10945000F0B581B03C22825C012A02D1022001B029
:10946000F0BD02463C32012313703F242402CD6834
:10947000A5430F24A4028E68A6432E434C681D4DBD
:10948000254035430C681C4E26402E430C691B4D6D
:10949000254035434C692C43194D25400C6B194E22
:1094A00026402E43CC6934438D692D04164E2E4040
:1094B00026430468A448844201D0354614E013488A
:1094C00006400F462037A1CFC96A00913F051946D3
:1094D0000F4B3B40334311267606B04318434B07EE
:1094E0009D4305430098054300201070656401B05A
:1094F000F0BDC046FF87F0EFFF8FF0EFFF9FF0EF6A
:10950000FFBFF0EFFFFFF0EF0000FFEFFFFF0FDC0A
:109510000000F0DCF0B53C22825C012A01D102207F
:10952000F0BD02463C3202235370012313700068E1
:1095300046688468844DA84201D0374604E00F276E
:109540003F05BE434F6837437026B7430E683E431E
:109550004660A84202D0F14DA84204D18025AC4318
:10956000896821438160002010705370F0BDC046AF
:1095700010B5044644300029024608D0082903D01B
:10958000042903D1421C02E0821C00E0C21C1278B4
:10959000012A08D10222002907D0082907D004296E
:1095A00007D1427006E0012010BD027002E0827017
:1095B00000E0C2702068042202F03BFE0122D003CA
:1095C00021684B6C03434B64D548814202D0D34899
:1095D00081420CD188685D4B03400020062B0AD0E5
:1095E0001404A34207D00B6813430B6010BD086836
:1095F00010430860002010BDB0B50D460446006859
:10960000002202F016FE2068026A15490A4208D1BB
:10961000026A144B1A4204D10122D203436C9343D1
:109620004364026A0A4207D1016A0E4A114203D119
:10963000016801229143016044340120082D06D0C5
:10964000042D07D0002D08D120700020B0BDA070DF
:109650000020B0BD60700020B0BDE0700020B0BD43
:109660001111000044040000B0B500281FD00446CA
:1096700005463C356878002804D100202870204633
:1096800000F018F80220687001CC214602F07AFD43
:1096900001202873A870E87028716871A871E871BA
:1096A00028726872A872E87268700020B0BD01204C
:1096B000B0BD000010B582B000680D49884201D0ED
:1096C00002B010BD0120C0030A490A6802430A60C3
:1096D00009680140019101981324002120460A469F
:1096E000FFF794FA2046FFF78DFA02B010BDC0468E
:1096F000002000404010024010B53D21415C01298E
:109700001BD101463D3102220A700168C86801225E
:109710001043C860EB48814202D0E94881420ED133
:1097200088680A4B03400020062B0CD01404A34287
:1097300009D00B6813430B6010BD012010BD0868F1
:1097400010430860002010BD002C014007000100FC
:1097500070470000F0B583B004460068C76806692A
:1097600002963E40B107514D13D52946FE310161A5
:10977000012121778069800703D02046FFF7E8FFA9
:1097800005E0204600F0D0F8204600F09FF90020C8
:109790002077700703210902019100282CD430079B
:1097A00053D4F00668D4F00706D020682946FF316C
:1097B0000161204600F056FA802007400AD041207F
:1097C000C0010299084005D020683949016120464E
:1097D000FFF73BFE002F09D0012000020299014053
:1097E00004D0206805612046FFF72EFE700611D4D4
:1097F000B00618D403B0F0BD20682946FC310161E1
:109800000221217780690199084214D02046FFF790
:109810009FFF16E020682946C0310161204600F014
:10982000E1FBB006E6D52068E03505612046FFF78C
:109830000DFE03B0F0BD204600F076F8204600F0A3
:1098400045F9002020773007ABD520682946F8314C
:10985000016104212177C069800703D02046FFF70A
:1098600077FF05E0204600F05FF8204600F02EF973
:1098700000202077F00696D520682946F031016156
:1098800008212177C0690199084203D02046FFF7DB
:109890005FFF05E0204600F047F8204600F016F98B
:1098A00000202077F00787D07FE7C046FFFEFFFF4C
:1098B0007FDFFFFF80B586B0002105910491039101
:1098C000029101910068B94A904210D0E14A904259
:1098D00022D11448026801231A430260006818402C
:1098E00000900320C0010190009802200AE00D4A78
:1098F0001368012003431360126802400092402263
:109900000192009A05900491039102200290052093
:10991000000701A9FEF7F0FD06B080BD000400407D
:10992000002C0140341002407047000070B505461D
:109930003C20285C012801D1022070BD0C462E4637
:109940003C36012030700221CA41052A6FD8C0463A
:109950007A441279520097440212243446552868FA
:10996000214602F073FC2868816908220A4382615B
:1099700081690422914381612169183053E028688C
:10998000214602F0A1FC0121CA0228688369134321
:109990008361890282698A438261216909021830E0
:1099A00041E02868214602F0CBFC2868C169082202
:1099B0000A43C261C16904229143C16121691C301B
:1099C00031E02868214602F0FBFC0121CA02286828
:1099D000C3691343C3618902C2698A43C2612169B1
:1099E00009021C301FE02868214602F019FD286892
:1099F000416D08220A434265416D0422914341654D
:109A000021690FE02868214602F038FD0121CA02D1
:109A10002868436D134343658902426D8A4342655A
:109A200021690902543002680A43026000200021C3
:109A3000317070BDB0B500281FD0044605463C35D6
:109A40006878002804D100202870204600F018F81B
:109A50000220687001CC214602F094FB012028739B
:109A6000A870E87028716871A871E871287268722E
:109A7000A872E87268700020B0BD0120B0BD00007F
:109A800082B00068494988420ED07249884214D198
:109A90000120C0020C494A6802434A6049680140FB
:109AA0000191019802B070470748016802221143F2
:109AB0000160006810400090009802B07047C046F6
:109AC00000040040002C01403C10024070470000A0
:109AD000B0B504463E300029024614D00A1F0223C6
:109AE000DA41032A0ED8C0467A44127952009744CC
:109AF00001030507421C06E0821C04E0C21C02E0D0
:109B0000021D00E0421D1278012A0FD100290FD05A
:109B10000B1F0222D341032B0DD8C0467B441B7977
:109B20005B009F44010A0C0E42700BE00120B0BDA7
:109B30000222027006E0427104E0827002E0C2700C
:109B400000E00271206801252A4602F065FB2168C9
:109B50001548814206DC1548814213D03D488142B8
:109B600006D01CE03C48814202D03C48814216D1DC
:109B7000E8034A6C02434A643648814202D00B48EB
:109B800081420CD188680A4A02400020062A0AD085
:109B90002B049A4207D00A682A430A60B0BD0868BD
:109BA000284308600020B0BDFF430140000400408E
:109BB00007000100B0B50D4604460068002202F01F
:109BC0002BFB20682249234A904205D0224A90422A
:109BD00002D0224A90420BD1026A0A4208D1026A9C
:109BE0001F4B1A4204D10122D203436C93434364B6
:109BF000026A0A4207D1016A194A114203D1016877
:109C00000122914301603E340220C541042D0AD84F
:109C10007D442D796D00AF44020A0E12160001201A
:109C200020700020B0BD012060710020B0BD012077
:109C300060700020B0BD0120A0700020B0BD0120E8
:109C4000E0700020B0BD012020710020B0BDC046F2
:109C500011110000002C0140004801400044014067
:109C600044040000F0B581B00068BA490968814237
:109C700001D001B0F0BD05252C07B74E3078012882
:109C800011D110212046FEF703FD00280BD1002042
:109C90003070B2490A68521C0A6004D20860B049A8
:109CA0000860B049087010212046FEF7F1FC012839
:109CB0000CD1AC480778AC480068AC49FCF7ACFC68
:109CC000002803D1002F01D001203070A84801786E
:109CD000002901D0491E01E0A64800210170A648D4
:109CE0000168002902D00168491E0160A34801688B
:109CF000002901D0491E0160A1480078012803D144
:109D0000A0480168491C01609F480168491C016026
:109D10009E480168002901D0491E01609C480168E5
:109D2000002922D09C480078002839D09B49086837
:109D30000126301A08609A490968491E032998D8F3
:109D40007944097949008F44017F93A8411E8841D5
:109D5000984909784A424A41024331032046FEF7B6
:109D60009CFC9148102100257CE08A490A68521C1D
:109D70000A600F2A03D300220A60012202600968E8
:109D800008390629CED8C0467944097949008F445C
:109D90000403B003B303B600C4E702210160C1E7C6
:109DA00085480078002803D084480168491C016078
:109DB00083480078002803D082480168491C01606C
:109DC00081480078002803D080480168491C016060
:109DD0007F4D2878002827D07E480078002871D051
:109DE0000127390320463A46FEF757FC6E481021FA
:109DF0003A46FEF752FCFE02204631463A46FEF74E
:109E00004CFC724801680B2900D232E700276E49EA
:109E10000F702F700760102163483A46FEF73DFC33
:109E2000204631463A4660E06B480168491C0160B3
:109E30006A480168491C016069480168491C016061
:109E400000F030FE01B0F0BD411E8841584909784C
:109E50004A424A41024354481021FEF71EFC310396
:109E6000002520462A46FEF718FCF102204612E0A3
:109E7000411E88414D4909784A424A410243F10254
:109E80002046FEF70AFC3103002520462A46FEF74D
:109E900004FC454810212A4627E0411E88414149DB
:109EA00009784D424D410543310320462A46FEF7CD
:109EB000F4FB3D4810212A46FEF7EFFBF102002299
:109EC000204612E0414F386802281AD8012529039C
:109ED00020462A46FEF7E1FB334810210026324691
:109EE000FEF7DBFBE90220463246FEF7D6FB01B067
:109EF000F0BD0321016015E70421016012E7056050
:109F000010E704280AD801263103002520462A46F6
:109F1000FEF7C3FB244810213246A4E7062800D9E7
:109F2000A7E601263103002520462A46FEF7B5FBA9
:109F30001D4810212A46FEF7B0FBF10220463246AA
:109F4000FEF7ABFB3868062800D092E63D6001B012
:109F5000F0BDC0463406002071030020F407002045
:109F6000F807002070030020580300200000404143
:109F70007903002078030020D0040020280200206C
:109F8000F0020020FC020020F8020020C0020020A5
:109F9000080800200C0800206C0200202C00002083
:109FA0000C000020E802002000040050C402002041
:109FB00049020020410300207402002070020020AA
:109FC000100300200C030020B8020020B40200207F
:109FD000280000200800002088020020A0020020A5
:109FE000440200207047B0B58421415C012901D1B1
:109FF0000220B0BD024684322421516001680B6802
:10A000000C680125AC430C606C07A3430B60002176
:10A0100041661170202050600846B0BD70477047FF
:10A0200070B504468420205C012801D1022070BD57
:10A03000254684352420686020680668026801236C
:10A040009A4302602B7007225206836893430B43A6
:10A050008360204602F048FA2068066000202870DD
:10A060002021696070BD70B504468420205C012801
:10A0700001D1022070BD2546843524206860206807
:10A080000668026801239A4302602B700722520778
:10A09000836893430B438360204602F025FA2068CF
:10A0A0000660002028702021696070BD70477047ED
:10A0B0000168CB698A681B0708D501231A4005D0BF
:10A0C00008220A629021435813434350704700000E
:10A0D000F0B587B006900768FA6920260125E902E5
:10A0E0000B462F3313403C68B868202B12D123460F
:10A0F0003340049222462C070440E3181446049A85
:10A1000008D00698416F002900D16FE10698884772
:10A1100007B0F0BD059404950B460F331340069D20
:10A120005C35002B029000D186E0B14B059C2340AA
:10A13000049C24070094641C0440E3187CD0019123
:10A1400003962946D307049D08D02B02059E334071
:10A1500004D03D620E464B6B2B434B6303462B40B2
:10A1600096070D4607D5002B05D002263E62696B87
:10A1700004260E436E635607039907D5002B05D0BE
:10A1800004233B626B6B02261E436E63130708D5E4
:10A19000059B0B401C4304D008233B626C6B1C43A3
:10A1A0006C6301980242069E059C08D0049B9B06A6
:10A1B000234004D001983862686B08436863686B79
:10A1C000002800D112E1039802400AD0044002980E
:10A1D00000990840204304D0716F002901D0304617
:10A1E0008847686B282101403068806840242040FF
:10A1F000401800D1E7E0304602F070FA306880681D
:10A20000400600D4CDE0EFF31080049981F310886C
:10A2100031688A68A2438A6080F31088686A0028DF
:10A2200000D1BEE073498163FDF7A6FF002800D18D
:10A23000DCE0686A816B6AE7059C20461040C30633
:10A240000699CB6E3ED5012B3CD1039610263E627B
:10A25000B968490645D469882A886B88002B00D1E3
:10A26000C4E0511A0A0400D1C0E0EFF31082049F49
:10A2700087F3108809235B01069804680595256813
:10A280009D43256082F31088EFF3108287F31088D6
:10A2900003689C68594D25409D6082F31088039A9D
:10A2A000059B1A6300224267C266EFF3108287F3B0
:10A2B000108803681C68B4431C6082F31088022273
:10A2C000026759E0D3025CD5049B9B0502990B40C1
:10A2D00057D00498000538620698FFF7E8FE07B0EB
:10A2E000F0BD696A09684A6893B2002B00D17DE02D
:10A2F0002C88A34200D379E06A800968890635D4A6
:10A30000EFF310812F46049D85F310883A4A2032DE
:10A31000069803681C6814401C6081F31088EFF3F2
:10A32000108185F3108802689368AB43936081F3D2
:10A330001088EFF3108185F3108802689368402439
:10A34000A343936081F31088039939630021C166A8
:10A35000EFF3108185F310883D4602681368B3431C
:10A36000136081F31088786AFDF7D0FE0221069809
:10A3700001672A886988511A89B2FFF74FFE07B032
:10A38000F0BD130612D580232340049CE4050299F6
:10A390002140059CCB1809D00698816F002925D053
:10A3A000B4E63046FFF784FE07B0F0BD400611D496
:10A3B000100214D504988007204010D00698FFF7AB
:10A3C00075FE07B0F0BD3046FFF772FE00206863EF
:10A3D00007B0F0BD069802F0AFF907B0F0BDD001AC
:10A3E00004D5002C02D50698FFF719FE07B0F0BD82
:10A3F00020010004C5C60008DFFEFFFFFEFFFFEFDF
:10A40000B0B5002830D00446054684356868002879
:10A4100004D100202870204600F028F8242068602D
:10A42000206801680125A9430160A06A002802D0C4
:10A43000204602F07DF8204602F01AFC012811D0D7
:10A440000920C00221684A6882434A6088682A223B
:10A45000904388600868012202430A60204602F0A7
:10A46000D1F805462846B0BD0120B0BDB0B58CB0CE
:10A4700000240B940A940994089407940694059474
:10A48000049403940294019400682A49884232D0CB
:10A49000294988424CD102940125019501A8FEF773
:10A4A000DFFB002801D0FDF7D2F9A8032349CA68D1
:10A4B0000243CA60CA6802400092009808680222FB
:10A4C000104308600868104000900B940A920994A9
:10A4D0000892C02007900098194807A9FEF70CF8C9
:10A4E0001B25284621462246FEF790FB2846FEF70C
:10A4F00089FB0CB0B0BD1148826801210B914B045F
:10A500001A43826082681A400092009A02680A43E5
:10A51000026000680840009002200A9009940890A8
:10A520000C20079005200007009907A9FDF7E4FF1C
:10A530000CB0B0BD0044004000380140341002406F
:10A5400000040050F0B581B08C23C358202B22D1D9
:10A550000124002920D0002A1ED001231C03856875
:10A56000A54204D10469002C01D1CC0717D10024E5
:10A57000C46605686D682D020AD5EFF3108583F374
:10A5800010889B06066837681F43376085F310887C
:10A5900002F03AFC00E00224204601B0F0BD1C4667
:10A5A000FAE7000010B5006811490968814200D03F
:10A5B00010BD10480078232805D0242806D10F4963
:10A5C00000220A8002E00C4901220A700B490A8825
:10A5D0000B4B9854521C94B2002018550A805B2CE7
:10A5E00000D30880024803490122FFF7ABFF10BDEA
:10A5F000CC06002010080020FE030020FC030020F1
:10A6000098030020F0B585B0049307468820385899
:10A6100020284CD10E460120002958D01546002A8A
:10A6200055D001200203B968914204D1396900294B
:10A6300001D1F1074BD13C46543400200290E06335
:10A64000212060630192FEF731F803906580258038
:10A65000B8680199884210D138690028029601D063
:10A6600000210291002808D1064606E030783968BA
:10A670008862761C6088401E60806088002819D03F
:10A68000049800908021002538462A46039B02F05A
:10A6900049FC00281DD1002EE8D1029A10880F49EC
:10A6A000084039688862921C02922E46E2E7022036
:10A6B00005B0F0BD04980090402100223846039B6D
:10A6C00002F030FC20216163002800D0032005B097
:10A6D000F0BD20206063032005B0F0BDFF01000045
:10A6E0007047FEE700688169890701D50021816212
:10A6F0008169C90703D1816901220A4382617047D8
:10A70000F0B585B00D46044640300490206881695C
:10A71000C90602D4002635464DE01021C1612068EB
:10A72000816989063CD4164601200190800302907D
:10A730000027039707E07942794120688269202346
:10A7400013403B432FD1681CF5D0FDF7AFFF002D20
:10A7500002D0801BA842EED92068426804998B7809
:10A760008169202B0DD0029B1A400AD1019AD20395
:10A77000114006D04168029A11434160FDF796FFEF
:10A780000646206880698006D5D4FDF78FFF801BC0
:10A790001A28F6D32020039901430391019FCAE7A9
:10A7A000012100220392002901D02021C16104204F
:10A7B000039E06430125012220688169CB0519D437
:10A7C0004B051DD4890522D4002D10D02046FFF75B
:10A7D00089FF20684168124A0A404260606C304339
:10A7E0006064202004994870002008708870284612
:10A7F00005B0F0BD1302C361164315464B05E1D504
:10A800009202C2610822164301258905DCD5012583
:10A810006902C16102200643002DD7D1E7E7C04697
:10A8200000E800FEF0B583B01D46029204463248AF
:10A830000090DAB20023204600F060F8089E099FDD
:10A84000204631463A4600F0F6F8002802D00120B2
:10A8500003B0F0BD012D0AD020680299090A816277
:10A86000204631463A4600F0E6F80028EFD120684D
:10A870000299C9B2816200974021002220463346E6
:10A8800000F054F8411E884103B0F0BDF0B583B02C
:10A890001D460292044618480090DAB201200306D1
:10A8A000204600F02BF8089E099F204631463A4684
:10A8B00000F0C1F8002802D0012003B0F0BD012D46
:10A8C0000AD020680299090A8162204631463A4638
:10A8D00000F0B1F80028EFD120680299C9B2816276
:10A8E0000097802100222046334600F01FF8411EC9
:10A8F000884103B0F0BDC0460020008070B5049CC4
:10A90000650D00684668AE43064D3540064E0E4064
:10A910001E431104314321430122D20791432943AD
:10A92000416070BD009C00FCFF030000F0B585B0E5
:10A930000468A4690C40651A6C426C41002594427D
:10A9400033D1019504930346403300930A9B03934C
:10A95000049E13E03868806929462840401B414224
:10A960004141A14225D0384639688A6929462A40A2
:10A97000521B534253412246A34218D10D4614465E
:10A9800007463146039AFFF7BBFE012100281AD182
:10A990000291701CE7D0FDF789FE04990029D9D0F7
:10A9A000039A801A8842DED9D4E729460BE0019940
:10A9B00009E0786C202108437864009A51700020E7
:10A9C000107090700299084605B0F0BDF0B583B0E4
:10A9D0000446006880690027800629D415460E4683
:10A9E000029720464030019007E020688069800689
:10A9F00015D52068806980060FD4204631462A4646
:10AA0000FFF77EFE0127002812D1FDF74FFE002E32
:10AA1000EBD0401BB042ECD9E7E7029F08E0606C46
:10AA2000202108436064019A5170002010709070DA
:10AA3000384603B0F0BDF0B583B0044600688069C5
:10AA4000002780072BD415460E460297204640303B
:10AA5000019007E020688069800717D52068806929
:10AA6000800711D4204631462A46FFF749FE0127C8
:10AA7000002814D1701CF1D0FDF718FE002EE9D08B
:10AA8000401BB042EAD9E5E7029F08E0606C202154
:10AA900008436064019A517000201070907038462D
:10AAA00003B0F0BDF0B581B05B4801680124611AC4
:10AAB000016059D0594800785949097801435948EB
:10AAC00000780843584909780143584800780843FA
:10AAD000574909780143574A10780843564B19786B
:10AAE0000143564F38780843554909780143E50238
:10AAF00005200607002906D1002230462946FDF729
:10AB0000CCFD4D4B4B4A38781978014310780843F7
:10AB10004B490978014304D0012230462946FDF70C
:10AB2000BCFD3E4800783E49097801433D48007825
:10AB300008433D49097801433C48007808433C49B3
:10AB40000978014329D0012230462946FDF7A5FDA9
:10AB50003C48102100242246FDF79FFD3A4804603E
:10AB60003A48046001B0F0BD34480078002805D0B0
:10AB700005200007E1020022FDF78FFD354801782E
:10AB80003048002921D03249096800291DD11021FF
:10AB90000122FDF782FD01B0F0BD2E4800780028AB
:10ABA00019D02B480068002815D12D48046026488C
:10ABB0000460244810212246FDF76FFD2348002140
:10ABC00001602848017001B0F0BD10210022FDF79E
:10ABD00064FD01B0F0BD2048007800280DD01A486F
:10ABE0000460184810212246FDF757FD1B4800213C
:10ABF00001701648016001B0F0BD14480168491C9D
:10AC000001600429E5D3002404600E481021224687
:10AC1000FDF743FD0C48A4E72C000020380200207B
:10AC200021030020B102002022030020B2020020F4
:10AC30005403002039020020080300201C020020D9
:10AC4000F102002000040050780200208003002060
:10AC50009C020020580200207F0300207103002086
:10AC6000F8070020480200208168584A0A40911CD9
:10AC7000816070478168554A0A40911C8160704725
:10AC80008168524A0A40511C8160704781684F4A6E
:10AC90000A40511C816070478168034A0A400121C3
:10ACA0000907511881607047E8FFFF6FB4214158D0
:10ACB0007F200840704703218907006908407047DA
:10ACC0000F2081043748006808407047072081053D
:10ACD00034480068084070474169072008407047C1
:10ACE0008068C00F704780688007C00F7047816818
:10ACF0000120084070478168012008407047806843
:10AD0000C000C00F7047C1680320084070478068CA
:10AD10004007C00F704703218902C2680A405042B1
:10AD200050417047024A0A40816A1143816270476C
:10AD3000FFFF0700C943034A0A43816A1140816249
:10AD40007047C0460000F8FF1F230B409100090F19
:10AD500099400F229A40836A93430B438362704762
:10AD600081681A4A0A40111D8160704710B5B422EB
:10AD700083587F24A3430B43835010BD09024369CA
:10AD80008B430A4002491140194341617047C04654
:10AD900000FFFF0707218905024A13688B4303431D
:10ADA000136070470827014004230B409A40072195
:10ADB000994043698B431343436170478168034A59
:10ADC00011408918183181607047C046E8FFFF7F45
:10ADD000072001030148006808407047081002403E
:10ADE000F0B583B0E0480068FF212E310191C931F0
:10ADF000884216D901256E02DC48002431462246DD
:10AE0000FDF74BFC7D2007013846FDF7E9FAD748EE
:10AE100031462A46FDF741FC3846FDF7E1FAD248B3
:10AE20000460D3480088D349096881420BD2D349D2
:10AE300000200860D0490A68782A10D379220A6075
:10AE4000CF4908700BE0CC4800210160CB48016875
:10AE5000782904D379210160C94801210170C948CA
:10AE60000078C94C2178014312D0C84900200870ED
:10AE7000C7490870C7490860C7490860C7490860E2
:10AE8000C7490860C7490870C7490860C7490860D2
:10AE900005200607EA480078002808D0202130461F
:10AEA000FDF7F6FBC04800210160C0480160B948C9
:10AEB000B74A117800290BD00168282908D3B34973
:10AEC00000230B7013700360B7490B60B7490B6028
:10AED000B7490988B74B1B688B4201D200221CE09E
:10AEE000B54B1D686D1C1D60019B9B1E9D4216D9B4
:10AEF00000231370B14A01251570AB4A1360AB4AA9
:10AF00001360A24A13700360A34A1360A34A13603C
:10AF1000A34A1360A34A1370019AA74B1A60A74F64
:10AF20003A78002A05D0A64A12688A4201D8002140
:10AF30003970A4490968A44A12688A42029614D357
:10AF4000954B1D686D1C1D60642D0ED3944D002320
:10AF50002B60944E01253570904E3668022E029E6D
:10AF600003D88A4E3570029E03608E4D491E8A4278
:10AF70000FD8297800290CD189490A68521C0A6027
:10AF8000032A06D3854A00231360834A13600B60AB
:10AF90002B702978002914D00168282911D37F4902
:10AFA0000A68022A0DD87C4B00261E602E70774B53
:10AFB0001E7006607C4806607C480660029E501C3D
:10AFC000086010213046FDF763FB01280CD10A20F0
:10AFD000FDF706FA10213046FDF75AFB0128694BB0
:10AFE0000FD17A4801210BE0784801780129654B9F
:10AFF00007D10021017076480121017075481E219A
:10B0000001705F4E3078002808D1A44900220A6000
:10B01000A0490A6070490A6070490A60197822786C
:10B020000A4339780A432B7813436D4A12781A433E
:10B030006C4B1B7813431DD000290AD06E480221A7
:10B0400001252A46FDF729FB290302982A46FDF728
:10B0500024FB96480078002801D000F0DBF8307817
:10B06000002805D161480178002901D00021017034
:10B0700003B0F0BD564A12780243DDD08B48007809
:10B0800059490978014301D100F0DEF830780028F1
:10B09000EED0474B1988554F3A7882421AD157481B
:10B0A0000068884233D956480168491C01600198FC
:10B0B000401E8142029C2DD94F48022101252A467B
:10B0C000FDF7EBFA290320462A46FDF7E6FA384B4E
:10B0D00001981DE0464A91423ED3464C2068401CF0
:10B0E00020600199491E8842C2D9434802210025A7
:10B0F0002A46FDF7D2FA0120010302982A46FDF7FD
:10B10000CCFA019820603078387003B0F0BD002090
:10B110003B49086018883B49096881421FD23A4E72
:10B120003068401C30606528A2D338480068384930
:10B13000FBF756FA00280BD12F48022100252A469A
:10B14000FDF7ABFA0120010302982A46FDF7A5FAA4
:10B150000198306003B0F0BD3870264800E02A48FE
:10B160000021016003B0F0BD440200200004005043
:10B170005C0300204C03002088020020A002002075
:10B18000A402002022030020B202002010030020AD
:10B19000080300200C030020D8020020F402002045
:10B1A000D4020020F102002000030020040300204C
:10B1B000F401002020020020BC0200201C0200201C
:10B1C0003C0200202C020020D00200207A03002044
:10B1D000780300207903002094020020240200203C
:10B1E00039020020280000204802002030030020FF
:10B1F000A5050000EC010020001400504C000020C8
:10B20000E801002048000020F00100205803002041
:10B210000000B040B0B5254D00242C70224801221A
:10B220000270C1488021FDF738FA6420FDF7D8F894
:10B230001B4804602C70034800684463B0BDC046DE
:10B24000F002002080060020B0B510483C210160CB
:10B250000F48002404600F4804600F4804600F4842
:10B260000460B14880212246FDF717FA0C480125F9
:10B2700005600C480460322000F078FB2846FDF79A
:10B28000AFF80948057009480570B0BDD00400202A
:10B2900098020020FC020020F8020020FC07002099
:10B2A000DC020020AC02002070030020F00200202D
:10B2B00080B5052000070121C9030022FDF7EDF943
:10B2C00080BD80B5052000070122D103FDF7E5F917
:10B2D00080BD000070B584B03C212A48002545544B
:10B2E0002C2101264654C56407210563416385630B
:10B2F000456285620521C16186760583082422495D
:10B30000720522C0056045608260C46003950295A5
:10B3100001950838FCF712FD002831D103950295FC
:10B320000196184801A9FCF74BFB002828D10420FE
:10B33000029016480190134801A9FCF741FB002830
:10B340001ED10294124801900E4801A9FCF738FB67
:10B35000002815D10C2002900E480190094801A93F
:10B36000FCF72EFB00280BD1102002900A48019018
:10B37000044801A9FCF724FB002801D104B070BDEA
:10B38000FCF765FAD4040020002401400200000408
:10B39000000100200002002400040028B0B582B0A3
:10B3A0000E480168012211430160006810400190BD
:10B3B000019809240025204629462A46FDF726FC47
:10B3C0002046FDF71FFC0B24204629462A46FDF7A0
:10B3D0001DFC2046FDF716FC02B0B0BD381002403F
:10B3E000F0B58BB000240A9409940894079406944D
:10B3F0004C48016804221143016001681140059125
:10B4000005990168202211430160016811400591EE
:10B4100005990168012529430160016829400591CA
:10B420000599016802273943016001683940059197
:10B4300005990168082211430160006810400590D9
:10B440000598E903384E30462246FDF726F937487D
:10B4500039462246FDF721F9802130462A46FDF77C
:10B460001CF905200490000703901321C9020091E4
:10B470002246FDF712F92E480C2101912246FDF7D4
:10B480000CF94720C10002912A482246FDF705F930
:10B490000994089407952848069006AE224831463C
:10B4A000FDF72AF8089711200004079006951F4819
:10B4B0003146FDF721F809940894079506971B4833
:10B4C0003146FDF719F80894079440200690164875
:10B4D0003146FDF711F809940894079500980690F5
:10B4E00003983146FDF708F80994089407950198E8
:10B4F00006900F483146FCF7FFFF09940894079522
:10B50000029806900B483146FCF7F6FF049D28464A
:10B5100021462246FDF77AFB2846FDF773FB0BB068
:10B52000F0BDC04634100240000800500014005026
:10B53000000C0050000400508080000010B510483E
:10B54000002101220F4B104C046043608160C260F7
:10B55000016141618161C1610162FDF7F1F800287B
:10B560000CD107480021FDF7A7F8002806D10448B0
:10B570000021FDF7C3F8002800D110BDFCF767F9E2
:10B5800094050020885D80100054004010B50948E3
:10B5900000218161084A094B094C046043608160C5
:10B5A000C2600161FEF760F8002800D110BDFCF711
:10B5B0004EF9C046340600203F1F00005F0900001E
:10B5C00000200040B0B598B000241794169415944C
:10B5D000149413941294119410940F940E9401A83F
:10B5E0003421FAF78CFD24484B25E900234A14C086
:10B5F000046041608460C46004610838FEF71AFA90
:10B60000002836D1179416941594FB4815A9FDF718
:10B6100081FF00282DD113940420129011941094CE
:10B6200070200E90A8000F90D4301490F2480EA90C
:10B630002246FEF77BF900281BD10D940C940B9445
:10B6400009940894079405940C20049003940294A0
:10B650000194012041060A9140030690F74801A990
:10B66000FDF7F6FE002804D1F448FEF723F918B0E0
:10B67000B0BDFCF7ECF8C046E8050020002C014006
:10B6800010B58AB0CD48002484611849C722184BF0
:10B69000036042608460C160046109940894079467
:10B6A0000694059404940394029401940094FEF784
:10B6B000C1F9002818D109940794C04807A9FDF7DB
:10B6C00029FF002810D10494029401946020009076
:10B6D000BA4869462246FEF729F9002804D1B7483E
:10B6E000FEF7E8F80AB010BDFCF7B1F8E703000078
:10B6F0000004004010B5144800210C22134B0162D5
:10B70000416281624B24E40118C0016041608160A4
:10B71000C260016141610838FEF772FE002811D154
:10B7200009480021FEF79FFC00280BD106480021A4
:10B73000FEF776FC002805D10348FEF754FC0028EC
:10B7400000D110BDFCF783F8CC0600200038014082
:10B7500010B50C4800210C220B4B01624162816242
:10B760004B24E40118C0016041608160C260016146
:10B7700041610838FEF744FE002800D110BDFCF7F7
:10B7800066F8C0466007002000440040FEE7000065
:10B7900070B5594800210160584806683046FBF7EB
:10B7A0000BF804460D46564A564BFAF751FF00284F
:10B7B00006D155480068022802D201213C2093E0BE
:10B7C000524A534B20462946FAF742FF002806D139
:10B7D0004D480068032802D20221322084E04D4AFD
:10B7E0004D4B20462946FAF733FF002806D146483C
:10B7F0000068042802D20321322075E04749304610
:10B80000FAF7EEFE002806D13F480068052802D26C
:10B810000421282068E0424A424B20462946FAF794
:10B8200017FF002806D138480068062802D20521F3
:10B830001E2059E0324A3C4B20462946FAF708FFC1
:10B84000002806D130480068072802D206211420BB
:10B850004AE02E4A354B20462946FAF7F9FE0028E1
:10B8600006D129480068082802D207210A203BE0B7
:10B87000284A2F4B20462946FAF7EAFE002806D12F
:10B8800021480068092802D208210A202CE0294911
:10B890003046FAF7A5FE002806D11B4800680A28A2
:10B8A00002D209210A201FE01D4A234B20462946C7
:10B8B000FAF7CEFE002806D1134800680B2802D202
:10B8C0000A20014610E00E4A1C4B20462946FAF792
:10B8D000BFFE002806D10C4800680C2802D20B21BC
:10B8E0000A2001E00C210A20074A1160144908606F
:10B8F00000F03CF870BDC046F8020020E4010020D2
:10B900009A99999999992A409802002066666666E4
:10B9100066662A403333333333332A4000005041C4
:10B92000CDCCCCCCCCCC2940999929406666294015
:10B930003333294000004841CCCC28409999284015
:10B94000E002002080B5074804210122FCF7A5FE93
:10B9500080BDC04680B5034804210022FCF79DFE4F
:10B9600080BDC046000C005070477047F0B581B0F4
:10B970000A244443104D2E68002E0BD0A6420ED24E
:10B980000E4F386846630220FCF72AFD761CB4424D
:10B99000F7D10EE009480068611E416309E009D94A
:10B9A000064F386846630220FCF71AFD761EA64251
:10B9B000F7D22C6001B0F0BDDC0200208006002030
:10B9C000B0B5FFF7C7FF0A242046FCF709FDFFF7D3
:10B9D00078FC2046FCF704FD01F004FB174C002521
:10B9E00020462946FEF774F820462946FDF7C0FD9B
:10B9F000104801210160B0BDE8050020B0B5FFF797
:10BA000057FCFFF79FFF0A486421016009480024A2
:10BA100004600948016001F0E5FA084D2846214616
:10BA2000FEF7C8F828462146FDF7E6FDB0BDC04642
:10BA3000240000209C02002020000020E8050020B7
:10BA4000F0B587B0EF480068012800D0B2E0EE48BA
:10BA50000078012800D0ADE0EC4C2068012806D128
:10BA6000EB480068792805D3FFF792FE02E0E8482A
:10BA700000210160E748006801280DD1E648032154
:10BA80000160D020E5490858E5490860FFF76EFFDE
:10BA9000DF48002101608DE0E248006801281BD1E9
:10BAA000DB4800250560E0480068002800D081E000
:10BAB000206800282DD0DD4804682046FAF77CFE77
:10BAC000DB4ADC4BFAF7DAFD002816D1DA480068C9
:10BAD000022812D2012020E0D8480268782A69D3CF
